:020000040800F2
:1000000010FA01207D03000877950008AF780008FA
:1000100075950008791600081DCA00080000000048
:10002000000000000000000000000000B90200080D
:10003000A52000080000000015030008A5A700087F
:100040009703000897030008970300089703000828
:100050009703000897030008970300089703000818
:100060009703000897030008970300089703000808
:100070009703000897030008D11F0008DD1F000840
:1000800097030008970300089703000897030008E8
:10009000970300089703000897030008ED20000865
:1000A0009703000897030008B9A800089703000801
:1000B00097030008D5A8000897030008BD7800083A
:1000C000B178000897030008970300089703000819
:1000D0009703000897030008970300089703000898
:1000E000D52000089703000897030008970300082D
:1000F0009703000897030008F9A800089703000871
:100100009703000897030008E1A800089703000878
:10011000970300089703000897030008EDA800085C
:1001200097030008F51F00089703000897030008CD
:100130009703000897030008970300089703000837
:100140009703000897030008970300087D950008AF
:100150009703000897030008970300089703000817
:100160009703000897030008970300089703000807
:100170009703000897030008970300080000000099
:1001800097030008970300089703000897030008E7
:1001900097030008970300089703000897030008D7
:1001A000A98900089D890008E91F00089703000835
:1001B00097030008970300089703000897030008B7
:1001C000970300089703000800F002F800F065F8B4
:1001D0000AA090E8000C82448344AAF10107DA45A2
:1001E00001D100F05AF8AFF2090EBAE80F0013F08F
:1001F000010F18BFFB1A43F00103184754190200FE
:10020000741902000A444FF0000C10F8013B13F07F
:10021000070408BF10F8014B1D1108BF10F8015B5F
:10022000641E05D010F8016B641E01F8016BF9D152
:1002300013F0080F1EBF10F8014BAD1C0C1B09D1A9
:100240006D1E58BF01F801CBFAD505E014F8016B1B
:1002500001F8016B6D1EF9D59142D6D370470000AD
:100260000023002400250026103A28BF78C1FBD8BF
:10027000520728BF30C148BF0B6070471FB51EF042
:100280005AFC9DE8030000F07BFA00F02FFA1FBD36
:1002900010B5002000F0B5FA10BD00F065FB114666
:1002A000FFF7ECFF1BF08AF800F083FB03B4FFF7C5
:1002B000EFFF03BC00F03EFA2D4B19680868B0E868
:1002C000F04F80F30988BFF36F8F4FF0000080F389
:1002D000118870470000000008480068006880F33B
:1002E00008884FF0000080F3148862B661B6BFF34F
:1002F0004F8FBFF36F8F00DF00BF00BF08ED00E03E
:10030000DFF80C00016841F470010160704700BF24
:1003100088ED00E0EFF30980BFF36F8F144B1A688C
:100320001EF0100F08BF20ED108A20E9F04F10607A
:1003300009B44FF0500072B680F31188BFF34F8FAD
:10034000BFF36F8F62B61CF08DFA4FF0000080F3A0
:10035000118809BC19680868B0E8F04F1EF0100F4A
:1003600008BFB0EC108A80F30988BFF36F8F704725
:1003700090020020EFF30580704700000948804795
:1003800009480047FEE7FEE7FEE7FEE7FEE7FEE777
:10039000FEE7FEE7FEE7FEE704480549054A064B8F
:1003A0007047000065A80008C901000810DC0120A2
:1003B00010FA012010EB012010EB012070B5064669
:1003C00000F0BEF9056806F10B0020F00704B44206
:1003D0009CBF002070BD2B466A68BAB11068A0426D
:1003E00010D304F1080188423CBF5068586007D31D
:1003F0005168101941601168091B01605860146050
:10040000101D70BD13465268002AE7D121462846C8
:1004100000F0A2F90028DED170BD70B50446051FBA
:1004200000F08EF90068002C14BF446870BD002CE9
:1004300018BFAC423CBF20466468F8D301680A1874
:10044000AA4218BF456003D12A68054611440160DD
:1004500028684119A1421CBF6C6070BD6168696069
:1004600021680844286070BD53EA020C00F06980DE
:100470002DE9F04B4FF00006002B1FBFB3FA83F5B8
:1004800003FA05F424FA05F65E4012BF1643B2FAE9
:1004900082F502FA05F4C5F120051EBF22FA05FC1B
:1004A00044EA0C04203556EA044C4FEA144418BFC1
:1004B000641C4FF000084FF00009904271EB030CF0
:1004C00039D3002919BFB1FA81F701FA07F6B0FA5A
:1004D00080F700FA07F6C7F120071EBF20FA07FCD5
:1004E00046EA0C062037B6FBF4FCA7EB0507103FE5
:1004F00007F01F0BCBF120060CFA0BFB2CFA06F6CB
:1005000044BFB3460026202FA4BF5E464FF0000B29
:100510005BEA060C08BF4FF0010B19EB0B09ABFBB4
:10052000027C48EB0608C01B06FB02CC0BFB03CC8D
:1005300071EB0C01C1E70B46024641464846BDE857
:10054000F08B13B54FF000004FF00001AFF30080C7
:10055000BDE81C40704710B5002000F073F9FFF7AC
:1005600097FEBDE81040012000F0E4B82DE9F0410D
:10057000074615460E461020FFF720FF04000AD05C
:100580006760C4E9026500F0DFF80168216004607B
:100590000020BDE8F0810120FBE7032A40F2308013
:1005A00010F0030C00F0158011F8013BBCF1020FB4
:1005B000624498BF11F801CB00F8013B38BF11F835
:1005C000013BA2F1040298BF00F801CB38BF00F84C
:1005D000013B11F0030300F02580083AC0F00880C9
:1005E00051F8043B083A51F804CBA0E80810F5E7AD
:1005F000121D5CBF51F8043B40F8043BAFF3008090
:10060000D20724BF11F8013B11F801CB48BF11F804
:10061000012B24BF00F8013B00F801CB48BF00F8D4
:10062000012B704710B5203AC0F00B80B1E818508C
:10063000203AA0E81850B1E81850A0E81850BFF4CC
:10064000F5AF5FEA027C24BFB1E81850A0E818506B
:1006500044BF18C918C0BDE810405FEA827C24BFBF
:1006600051F8043B40F8043B08BF7047D20728BF4D
:1006700031F8023B48BF11F8012B28BF20F8023B9C
:1006800048BF00F8012B704702F0FF0343EA032242
:1006900042EA024200F0E6B84FF0000200B513460D
:1006A00094469646203922BFA0E80C50A0E80C5092
:1006B000B1F12001BFF4F7AF090728BFA0E80C5043
:1006C00048BF0CC05DF804EB890028BF40F8042B3C
:1006D00008BF704748BF20F8022B11F0804F18BFA9
:1006E00000F8012B704770477047704770B5064C93
:1006F0007C44064D7D4403E0206820448047241D4F
:10070000AC42F9D170BD00007C1402008C140200D0
:100710002DE9F04117460E46054633B107FB035459
:10072000E41B2046B047A542FAD1A5F10800BDE878
:10073000F081000001491820ABBEFEE72600020050
:1007400000487047F44001200048704724410120D0
:10075000704770477047704738B504460A46002016
:100760006946AFF30080002808BF38BD02460099F3
:10077000204600F0A1F8012038BD012000F0D4B8D7
:10078000F8B5AFF30080054600200C46102000BFEE
:100790000646A819A0420DD9324669460020AFF39B
:1007A0000080070008BF00F0BFF80098A04218BF03
:1007B0000546C419FFF7C4FF05600746F01D20F089
:1007C00007004619284600F00AF8B44208BFF8BDF1
:1007D000A21B31463868BDE8F84000F06DB8002132
:1007E0000160C0E9011070471020704710B500F09B
:1007F0005FF8006810BD10B5044600F059F80460B9
:1008000010BD2DE9F0410646FFF79EFF80464546A4
:1008100013E016B1E068B0420ED120682860D4E938
:100820000101D8F8007088472046FFF7F6FDD8F898
:100830000000B842EBD100E025462C68002CE8D13E
:10084000BDE8F08110B500F057F8BDE8104000F0A9
:100850004DB810B500F070F8BDE8104000F046B893
:100860004FF000020429C0F0128010F0030C3FF496
:1008700015AFCCF1040CBCF1020F18BF00F8012B2E
:10088000A8BF20F8022BA1EB0C01FFF707BF5FEA1E
:10089000C17C24BF00F8012B00F8012B48BF00F8F1
:1008A000012B704700487047EC4001207047000062
:1008B00000487047EC400120034640688C46002801
:1008C00018BF88423CBF03464068F8D318681844F4
:1008D000884207D00CF1030020F00700001D411AE8
:1008E000521A0146081D0A60FFF797BD002801D083
:1008F000FFF720BF7047000010B5002102A000F0F4
:1009000061F8012010BD0000534947414252543A5A
:100910002041626E6F726D616C207465726D696EDC
:100920006174696F6E00000010B500F065F8BDE8F5
:100930001040FFF7DBBF000010B5002102A000F05F
:1009400041F8012010BD00005349475056464E3A29
:100950002050757265207669727475616C20666EC0
:100960002063616C6C6564007546FFF79BFFAE46C3
:1009700005006946534620F00700854618B020B5AB
:10098000FFF70AFDBDE820404FF000064FF00007DA
:100990004FF000084FF0000B21F00701AC46ACE827
:1009A000C009ACE8C009ACE8C009ACE8C0098D4694
:1009B000704710B50446AFF300802046BDE81040F4
:1009C000FFF774BC70B505460C460A2000E06D1CAC
:1009D00000F03AF835B128780028F8D102E0641C1C
:1009E00000F032F814B120780028F8D1BDE870404A
:1009F0000A2000F029B8000010B5012805D0002118
:100A000003A0FFF7DFFF012010BD09A1F8E70000F8
:100A100053494752544D454D3A204F7574206F66E7
:100A20002068656170206D656D6F7279000000004F
:100A30003A2048656170206D656D6F727920636F33
:100A4000727275707465640008B569468DF80000AF
:100A50000320ABBE08BD10B50146806B026C12F0DE
:100A6000500F05D0026CD20626D502F0E7F810BD73
:100A7000016C41F40071016401688A6812F0405F02
:100A800017D18269AAB9CA6A12F4700F02D08A68B3
:100A900052050ED44A6822F020024A60016C21F40B
:100AA00080710164016CC90403D4016C41F001013F
:100AB000016402F0C1F810BD806BC26C0846BDE84D
:100AC0001040104710B5806B40210164416C41F02B
:100AD0000401416402F0B2F810BD10B5806B02F061
:100AE000ACF810BD4A496FF0706210B5D1F804330C
:100AF00023F44033C1F80433D1F80433446823436A
:100B0000C1F8043301684B6823F480734B600168BB
:100B100003694C6844EA03234B6001684B6823F087
:100B200040734B60016884684B6823434B600168E5
:100B30008B6823F400638B600168C4688B6823436F
:100B40008B60816AD14201688A6822F070628A6093
:100B500001680DD0836A8A681A438A6001688A68CE
:100B600022F040528A600168C36A8A681A4302E030
:100B70008A6822F040528A6001688A6822F0020284
:100B80008A60016882698B6843EA42028A6090F851
:100B900020100029016811D01E4A4B6843F40063FD
:100BA0004B6001684B6823F460434B600168446A02
:100BB0004B6802EB443213434B6003E04A6822F473
:100BC00000624A600168144BCA6A22F47002CA6269
:100BD0000168848BCA6A03EB04531A43CA62016832
:100BE0008A6822F400728A60016890F830208B686D
:100BF00043EA42228A6001688A6822F480628A603D
:100C0000016840698A6842EA8020886010BD00005F
:100C10000020014000E0FFFF0000F0FF0C4970B52C
:100C20004B88102B12D28888FF280FD8094A441C01
:100C3000094D05EB83231578567892782D0605EB40
:100C4000064505EB022243F820208C8070BD000091
:100C50002801002055010020001808C0F0B5104CF4
:100C60006678202E1BD2761C0E4DF6B26670012ED1
:100C700006EB460705EB870645F8270071603372DF
:100C800072720CD1E868A06020612869E060287D5C
:100C900020706A752271E270A078401CA070F0BDCF
:100CA000E0000020542C002010B51B4C04F1800003
:100CB0002DED048BA17890ED009B01291ED0022917
:100CC00019D19FED160B53EC102B94ED1C0B51EC2E
:100CD000100B1DF00BFC9FED130B41EC180B53ECAC
:100CE000102B51EC190B1DF001FC53EC182B1DF0CF
:100CF0002DF9C4E91C01BDEC048B10BD84ED1C9BD7
:100D00006078401CC0B260701028F4D10020607080
:100D10000221A170EFE70000400000200000000069
:100D2000295CEF3F00000040E17A943F1348DFED7B
:100D3000140A9FED140A017811B101290CD00DE0BD
:100D40008189B0EE600A491C89B28181642905D38A
:100D50000021818101220270B0EE600AF7EE001AD4
:100D600090ED061A71EEC01AD0ED050A20EE010AC8
:100D700001EEA00A80ED060A70470000F400002092
:100D80003333733FCDCC4C3FDFED3B0A3B4B1E2052
:100D9000F0B4B0EE601AB0EE410A03EB8001421CE1
:100DA00091ED002AD1ED571A90B232EE011A31EED0
:100DB000800A5528F1D3334900209FED312A324A69
:100DC000C1EE021A80EE021A01E01E2807D201EBE2
:100DD000800402EB8005C4ED000AC5ED000AC1EDF8
:100DE0001D1AA0F11E04372C82ED1D1A1DD201EB35
:100DF00080059FED262A55ED012A03EB80049FED27
:100E0000240A62EE822A14ED013A02EB800643EED8
:100E1000002AC5ED002A16ED013AD4ED562A23EE3C
:100E2000022A02EE802A86ED002A552807D301EB1C
:100E3000800402EB8005C4ED000AC5ED000A401CE9
:100E400080B25828C1D3134B5FF0000001EB80043F
:100E500002EB800594ED000A03EB8004401C84ED56
:100E6000000A95ED000A80B2582884ED580AEDD3A7
:100E7000F0BC00F0AFBD00000000000000E808C0BA
:100E800000005C4200E008C000E408C0CDCC4C3F4C
:100E9000CDCC4C3E00DC08C0F0B51B4B00201D4AF9
:100EA0009FED1A0ADFED1A0A03EB800102EB8004C2
:100EB00091ED001A5FF0010184ED001A03EB81252A
:100EC0004E1C02EB812105EB800701EB8005B1B2DE
:100ED000A5F58066D7ED001A96ED001A102921EECF
:100EE000001A01EEA01A85ED001AE7D304F570543C
:100EF000411C94ED001A084C04EB800488B2FF28D2
:100F000084ED001AD0D9F0BD005808C06666663F6F
:100F1000CDCCCC3D009808C000D808C0314B5FF064
:100F20000000314903EB800202F57052D2ED000A55
:100F300092ED010A92ED021AF4EEC00AF1EE10FAF7
:100F400004D8B4EEC10AF1EE10FA3BD9F4EEC10AAE
:100F5000F1EE10FA04D8B4EEC01AF1EE10FA13D97B
:100F6000B4EEE00AF1EE10FA04D8F4EEC10AF1EEA4
:100F700010FA18D9B4EEC10AF1EE10FA09D8B4EE9D
:100F8000E01AF1EE10FA04D801EB800282ED001AAB
:100F90001CE0B4EEE01AF1EE10FA09D8F4EEC00A43
:100FA000F1EE10FA04D801EB8002C2ED000A0DE068
:100FB000B4EEC01AF1EE10FA08D8B4EEE00AF1EE81
:100FC00010FA03D801EB800282ED000A401C80B2C7
:100FD000FE28A7D391EDFD0A81EDFE0A81EDFF0AFF
:100FE00070470000009808C000E808C0304910B5FC
:100FF000304891ED030A4A78531C00EB8204DAB2C0
:1010000084ED000A032A4A7001D100224A70D0ED13
:10101000000A90ED010AF4EEC00AF1EE10FA08DBC6
:1010200090ED021AB4EEC10AF1EE10FA01DB81ED87
:10103000040A90ED021AF4EEC10AF1EE10FA06DB92
:10104000B4EEC01AF1EE10FA01DB81ED041AB4EE31
:10105000E00AF1EE10FA06DBF4EEC10AF1EE10FA46
:1010600001DBC1ED040AB4EEC10AF1EE10FA06DBB1
:10107000B4EEE01AF1EE10FA01DB81ED041AB4EEE1
:10108000C01AF1EE10FA06DBB4EEE00AF1EE10FA47
:1010900001DB81ED040AB4EEE01AF1EE10FA06DB92
:1010A000F4EEC00AF1EE10FA01DBC1ED040A10BD46
:1010B00024000020482C002070B5454C2DED048BF9
:1010C0009FED449B94ED088A04F18005B5EEC08A3B
:1010D000F1EE10FA1CDB18EE100A4049884217DACC
:1010E00018EE100A1DF0B6FC9FED3D1B53EC112BC2
:1010F0001DF0FCF99FED3C1B53EC112B1CF026FF5F
:1011000053EC192B1DF0F2F9C5E900010522A2717B
:10111000324A18EE100A364952421044884217D219
:1011200018EE100A1DF096FC9FED321B53EC112BAC
:101130001DF0DCF99FED311B53EC112B1CF006FF69
:1011400053EC192B1DF0D2F9C5E900010622A2715A
:1011500018EE100A2B4A2C491044884217D218EE78
:10116000100A1DF077FC9FED291B53EC112B1DF08D
:10117000BDF99FED281B53EC112B1CF0E7FE53EC3F
:10118000192B1DF0B3F9C5E900010722A27118EE71
:10119000100A2249884217DB18EE100A1DF05AFC8B
:1011A0009FED1F1B53EC112B1DF0A0F99FED1E1B93
:1011B00053EC112B1CF0CAFE53EC192B1DF096F9C1
:1011C000C5E900010822A271BDEC048B70BD0000CE
:1011D0004000002000000040E17A843F00B808474A
:1011E000CBA145B6F3FD0340643BDF4F0D12A6C013
:1011F00000C409014260E5D022DB0240986E1283F0
:10120000C0BAA9C00084EDB7009F24018FC2F528A1
:101210005C8F02403BDF4F8D3788BFC0001B3749D2
:10122000DBF97E6ABC7403407D3F355EE0B5F8C0F3
:1012300070B5454C2DED048B9FED449B94ED088AD1
:1012400004F18005B5EEC08AF1EE10FA1CDB18EE51
:10125000100A4049884217DA18EE100A1DF0FAFB0E
:101260009FED3D1B53EC112B1DF040F99FED3C1BF6
:1012700053EC112B1CF06AFE53EC192B1DF036F9C0
:10128000C5E900010122A271324A18EE100A36495E
:1012900052421044884217D218EE100A1DF0DAFBB1
:1012A0009FED321B53EC112B1DF020F99FED311BEC
:1012B00053EC112B1CF04AFE53EC192B1DF016F9C0
:1012C000C5E900010222A27118EE100A2B4A2C492E
:1012D0001044884217D218EE100A1DF0BBFB9FED98
:1012E000291B53EC112B1DF001F99FED281B53EC2A
:1012F000112B1CF02BFE53EC192B1DF0F7F8C5E950
:1013000000010322A27118EE100A2249884217DB5D
:1013100018EE100A1DF09EFB9FED1F1B53EC112BC6
:101320001DF0E4F89FED1E1B53EC112B1CF00EFE7C
:1013300053EC192B1DF0DAF8C5E900010422A27163
:10134000BDEC048B70BD000040000020000000E0F8
:10135000E2361A3F00B80847333333333333F73FAD
:101360006666666666D0B7C000C40901AAF1D24DB0
:101370006210F03FE9263108AC3C5AC00084EDB75A
:10138000009F2401D578E9263108F03F8B6CE7FBFC
:10139000A9B38140001B37491283C0CAA145F03F61
:1013A00079E9263158A2C8C070B590B04FF44064B6
:1013B0000020A20307944FF480760B90EB25009554
:1013C00071010391CDE908020C900A230D900EAA39
:1013D0000F9069460E900548CDE9053604F056FA9F
:1013E000002800D0012010B070BD0000B8330020EC
:1013F00070B5194C17482060204604F0DAF9E0B9BE
:101400000021204600F02AF84FF08071002091FA68
:10141000A1F14FF4A066B1FA81F1491EC4E905605B
:101420000423E0611025206201222046C4E9035113
:10143000C4E9012304F0D2F908B1012070BD0648C7
:1014400008F001FB20B9044808F0B8FA0028F5D0EC
:10145000042070BD001000A0B8330020414870B5D2
:1014600086B0016841F002010160006800F00200EE
:1014700005903C482038016841F002010160016894
:1014800021F00201016037480838016841F002018B
:101490000160016801F002010591016841F002015B
:1014A0000160016801F002010591016841F0080145
:1014B0000160016801F008010591016841F008012F
:1014C0000160016801F008010591016841F0100117
:1014D0000160016801F010010591016841F0080107
:1014E00001600068022101221F4E00F008000590F3
:1014F000402003230A248DE81F006946304602F08D
:10150000CBF9002069460425009509240494029033
:10151000304602F0C1F9154E680269460494009005
:10152000304602F0B9F9A8026946049400903046AA
:1015300002F0B2F90E4869460095049402F0ACF945
:10154000E802694604940090304602F0A5F90022B2
:101550000F215C2003F056FA5C2003F046FA06B037
:1015600070BD00003838024000040240000C024008
:10157000001002402DE9F843224C102700254FF6B9
:10158000FF780126009521464246C4E90067C4E978
:10159000026501F1100005F09FF8012001F098FFAD
:1015A00002202146C4E90007C4E9026501F11000E8
:1015B000424605F091F803214246C4E9001708208D
:1015C0002146C4E9020501F1100005F085F84FF449
:1015D0000C70009004214246C4E90260C4E900177F
:1015E000214601F1100005F077F804F1100040F2F7
:1015F0002B7105F05AF84FF0204143F2D2000860F9
:10160000BDE8F883E02E0020164808B5016841F0D7
:1016100080510160006800F08050009003F0E0FF0E
:10162000104811493030114A036843F40043036005
:101630001160BFF34F8FBFF36F8F72B600204FF072
:10164000E021086148618861BFF34F8F0848094A6B
:10165000016801F4E06111430160BFF34F8F00BFE7
:10166000FDE700004038024007B007B050280040B6
:101670000CED00E00400FA05FEE70000042810B5B8
:1016800025DD144A202802D0212820D10EE08B78B5
:101690000888CC7863F31F4040EA04601060087942
:1016A0001071487950718879907110E01078087045
:1016B0001088000A48701068000C88701068000ECE
:1016C000C87010790871507948719079887100203C
:1016D00010BD00004802002000207047054900228C
:1016E000054810B509F014FD0449034809F003FD4D
:1016F000002010BDBC790020E0340020BC3900205F
:101700002DE9F0410968082902D0402915D025E0CB
:10171000017843788478C578194402792C44437958
:101720000C44817922441344C2791944C9B28A42D3
:1017300014D100BF08F080FF10E00D4A00210D4CCD
:1017400013784D1C465C01EB8317E9B24029E6553E
:10175000F7D35B1CD8B21070082805D0064809F0F2
:10176000A3FC0020BDE8F081002010700148E1E7F3
:101770003C020020BC990020E034002070B50F4CE2
:101780000026D4E90101814216D002D9C1F5804575
:1017900001E0A0EB01050A482A460144094809F086
:1017A000B7FC084809F02AFD30B9A0682844A060B9
:1017B000B0F5804F00D1A660304670BD3C020020DD
:1017C000BC790020E0340020214A30B5136823F0B2
:1017D000010313601F4A1368C3F30B140123A4F51C
:1017E0004065243D06D01268C2F30B12A2F5406496
:1017F000273C17D1184A1268A2B9184A14684FF04A
:101800008A45B5EB045F18D01468C4F30B04A4F543
:101810008065833D11D01268C2F30B02A2F580648B
:10182000853C0AD00E4A93609368002BFCD110606F
:101830001068884209D0002030BD0A4A136013683E
:10184000002BFCD1074A083AF1E7012030BD000027
:10185000002000E000ED00E0002004E00010005C4B
:1018600000300240084C02582B4810B540881CF04C
:10187000EDFD9FED2A1B53EC112B1CF037FE1CF0E5
:1018800033FB284CE060FFF7B1FBA0880121322830
:1018900006D8401CA08094ED040A84ED050A0EE0F1
:1018A000DFED211A94ED040A9FED201AD4ED050A0C
:1018B00020EE210A00EE810A84ED050AA1700022C3
:1018C000E078D0B1012817D1D4ED050A9FED180AB0
:1018D000DFED181A94ED021A20EE800A01EE210ABB
:1018E00084ED020A70EE600AB0EEE00A10EE100A13
:1018F000B0F17E5F00DDE27010BDA0780128FBD161
:1019000084ED020A2078401CC0B220701028F3D168
:101910002270E17010BD00002E01002023DBF97E53
:101920006ABCB43F240000200AD7A33C48E17A3FB8
:101930008FC2753DD7A3703F10B5204C1E21DFED3F
:10194000211ADFED1F0A94ED061A1F48B0EE600A57
:1019500021EE211A00EB81034A1CD3ED571A91B2F4
:10196000502971EEC11A41EEA10AF3D31E214A1C7F
:1019700000EB810391B2D3ED001A502971EEC11A28
:1019800001EEA10AF3D39FED111A70EE800A80EEEA
:10199000810A10EE100A1DF05DF841EC100B19F0F1
:1019A00059FB51EC100B1CF09FFA00EE100ADFED12
:1019B000080A20EE200A84ED0D0A10BD4000002028
:1019C000000000000000804300DC08C00000C842A6
:1019D0000000803B2DE9F05F2DED0A8B9FED4EABB3
:1019E0004F4C00204F4E5FF01E05B0EE4A8AF0EEDD
:1019F0006A8AB0EE489AF0EE689A207206EB850784
:101A000038681DF027F853EC182B1CF09FFA41ECB6
:101A1000180BD7F85C011DF01DF853EC192B1CF0C6
:101A200095FA6D1CADB241EC190B552DE6D351EC76
:101A3000180B9FED3DCB53EC1C2B1CF03BFB41ECFA
:101A40001B0B53EC1C2B51EC190B1CF033FB9FEDC3
:101A5000389B41EC180B1E2553EC192B51EC1B0B3A
:101A60001CF044FD8B46814653EC192B51EC180BAE
:101A70001CF03CFD8A46804606EB85074AEC188B35
:101A8000D7F860011CF0E6FF53EC182B1CF0F8FEB1
:101A900041EC190BD7F85C014AEC188B1CF0DAFF0B
:101AA00053EC182B1CF0ECFE53EC192B1CF01EFD14
:101AB00053EC1A2B1CF0DEFC02D2207A401C207260
:101AC00078684BEC189B1CF0C5FF53EC182B1CF0EE
:101AD000D7FE41EC190B38684BEC189B1CF0BAFF91
:101AE00053EC182B1CF0CCFE53EC192B1CF0FEFC15
:101AF000B0EE4A1AF0EE6A1A53EC112B1CF0BAFC45
:101B000002D2207A401C20726D1CADB2552DB3D389
:101B1000BDEC0A8BBDE8F09F000000000000000053
:101B20004000002000DC08C00000000000804B40A6
:101B3000000000000000E03F10B5154C20462DEDE0
:101B4000048B94ED079A90ED1C8BB5EEC09AF1EEE4
:101B500010FA09D151EC180B9FED0E0B53EC102B22
:101B60001CF0C4FCC4E91E0119EE100AB0F17E5F3E
:101B700009D151EC180B9FED090B53EC102B1CF005
:101B8000B5FCC4E91E0184ED1A8BBDEC048B10BDBD
:101B9000400000200000006048E0374000000040A6
:101BA0007A6A3F4010B500F039FE00F06BFD0C483A
:101BB000B6EE001A90ED0B0AD0ED0C0A70EE601A2A
:101BC00030EE200A61EE810A20EE010AF0EEE00A12
:101BD000C0ED050A80ED060ABDE81040FFF7ACBE77
:101BE0004000002010B5134C204690ED0D0A2079DE
:101BF000012805D084ED080A2078022810D011E0D1
:101C00000D48DFED0E1ADFED0E0A90ED001A31EEF1
:101C1000211A21EE000A80EE201A84ED081AEBE763
:101C2000FFF706FB2078002803D1BDE81040FFF73E
:101C300043BA10BD400000202C0000200000C44129
:101C40000000464210B5164C1021A07920721548AC
:101C500001F046FFA0714021134801F041FFE071FF
:101C60000021A279237A9A4209D123795B1CDBB245
:101C70002371022B04D1012A217102D003E02171CA
:101C800010BD012805D038B1002AF9D10220E0703A
:101C900010BD0120E07000E0E170217010BD000077
:101CA000F4000020000402400008024070B5424CDD
:101CB0002DED028BB0EE008ADFED400A94ED180A9C
:101CC00004F1800084ED190A94ED170A84ED180AD6
:101CD00094ED080A84ED170A60EE081A94ED0F0AD5
:101CE00084ED100A94ED0E0A84ED0F0A94ED040AB7
:101CF00094ED031A30EE010A20EE200AC0EE210A0C
:101D0000C4ED0E0A94ED120A84ED130A94ED110A43
:101D100084ED120A90ED000B53EC102B94ED1C0B8C
:101D200051EC100B1CF0ACFD41EC100B19F088F9D4
:101D300051EC100B1CF0D8F8606494ED150A84ED9A
:101D4000160A94ED140A84ED150A00F003FC1C49F0
:101D5000206A884202DD84ED148A03E0B7EE000AAF
:101D600084ED140A0123E371216D00204FF07F52AE
:101D7000914208DD656D954205DDA56D954202DD58
:101D8000E07160710FE06279012A0AD10D4A914237
:101D900007DA616D914204DAA16D914201DAE071D6
:101DA00001E0002B05D1BDEC028BBDE8704007F0CF
:101DB000EBBEBDEC028B70BD400000200000C842AD
:101DC000001B374A0AD7A33B10B5FFF73BFF354C42
:101DD0006079401CC0B26071322801D908F09CFCC7
:101DE00031480088608180B2A0F6DE001CF017FB4D
:101DF0009FED2E1B53EC112B1CF078FB9FED2D1B40
:101E000053EC112B1CF056F99FED2C1B53EC112BAE
:101E10001CF09CF81CF068F86061FEF787FFD4EDB9
:101E2000060AF0EE081A9FED270A70EEE10A9FED10
:101E3000261A264960EE801AC1EE810A10EE900A39
:101E4000C4ED070A884201DD84ED070A94ED071A04
:101E5000DFED1F0AB5EEC01AF1EE10FA01D2C4EDA3
:101E6000070AD4ED071AB1EE041A71EE811A81EE59
:101E7000812ABDEEC21A11EE100A00EB800001EEBD
:101E8000100AB8EEC11A84ED071AB5EEC01AF1EEC9
:101E900010FA01D2C4ED070AE069884201DD84ED41
:101EA000070A10BDF40000202E0100203433333324
:101EB0003333F33F00000000009C9040000000001E
:101EC000000008400000C8429899993F0000C842AD
:101ED000000000000F488178C278914200D0C170A4
:101EE0000D4991F89C22827091F89C22032A02D11C
:101EF000C278022A0BD091F89C12032906D1C1782E
:101F0000042903D100214170044801707047012168
:101F1000417070473C020020E03400205A0100204C
:101F2000F0B5C1F3CF04002125E0002301251A46B6
:101F30005FF0A10700F8313002EBC10303445E7883
:101F40001A2E08D110F8316005FA02FC46EA0C0698
:101F500000F831605F70521C92B2082AECD310F87E
:101F600031304A1C03F0F00503F00F0343EA450348
:101F700000F8313091B2A142D7D3F0BD0E480C2108
:101F800010B505F04BFB0C48082105F0C3FB0A48CF
:101F90000021983005F0C8F907480421983005F071
:101FA000C3F905484C3004F02DFF0348BDE810404C
:101FB000983804F0E7BE00007C320020010900F0F0
:101FC0000F0001EB810100EB4100704770470000FA
:101FD000014801F0FDB8000024310020014801F063
:101FE000F7B8000084310020014800F0B8BF0000BD
:101FF000A02E0020014801F0EBB800001C2E0020AC
:1020000001681823CAB2103AB2FBF3F2054B6FF322
:102010000901032A9B5CC36500D9091D8165084637
:102020007047000050ED010810B583694FF0C0748F
:10203000826A0146002053B1B3F5005F15D072B13A
:10204000012A0CD0022A0AD0032A09D104E01AB1CD
:10205000012A06D0022A03D1C96AC90100D501208C
:1020600010BDC96AA142FAD010BD002AF7D0012ADA
:10207000F2D0022AF3D0032AF3D010BD30B50468A1
:10208000256825F480252560046863608368402BFB
:10209000036803D099600068C26030BD9A60006830
:1020A000C16030BD70476422B0FBF2F30A2110B565
:1020B000B0FBF1F402FB1302B0FBF1F301FB1404DB
:1020C000141B01FB130294FBF1F002EB0010C0B2F1
:1020D00010BD000004480068400403D54FF4804060
:1020E00001F0CEBB70470000143C0140402001F0DD
:1020F000C7BB000030B5084C00221146002004EB9D
:102100008123451C43F82020A8B2FF28F9D9491C97
:1021100089B21029F2D330BD001808C010B501F003
:102120007BFA00F063FA00F09BFA0E4B19204FF097
:10213000FF3140F6C81200BF43F82010401C904207
:10214000FAD372B600F058FA38B100F06BFA20B149
:1021500062B601F015FA012010BD62B601F010FA66
:10216000002010BD2805002000214FF4FF32084652
:1021700010B54300A3F18043401C90421980F8D36E
:10218000044B002003EB4004401C9042A4F8001CC8
:10219000F8D310BD00F003C010B51928044601D3D0
:1021A000002010BD01F038FA00F020FA00F058FAD3
:1021B000642040F6C81214FB00F101F16400904263
:1021C00003D900BF01F0DCF9EAE70B4A0020431E07
:1021D0000C18401C642842F82430F9D372B600F081
:1021E0000BFA38B100F01EFA20B162B601F0C8F95E
:1021F000012010BD62B6E5E7280500207047000009
:102200004FF0000229B101291CD002291DD04FF442
:1022100040720F490B6823F440730B600B68134343
:102220000B600A68022303EBC00322F0F8020A6085
:10223000086818430860086840F480300860BFF3FD
:102240004F8F70474FF48072E3E74FF40072E0E77E
:10225000103C024009494FF480330A6843EA0023E6
:1022600022F440700860086840F0040008600868C4
:1022700018430860BFF34F8F70470000103C0240C6
:10228000074A136823F440731360136813601368DC
:1022900043F0010313600170BFF34F8F70470000DC
:1022A000103C02400A4910B50C6824F440740C60DC
:1022B0000C6844F440740C600C6844F001040C6039
:1022C0000260BFF36F8F4360BFF34F8F10BD0000FC
:1022D000103C0240084A136823F4407313601368EB
:1022E00043F480731360136843F0010313600180AB
:1022F000BFF34F8F70470000103C0240084A13683C
:1023000023F440731360136843F40073136013687D
:1023100043F0010313600160BFF34F8F704700006B
:10232000103C0240134914480A68920703D5826999
:1023300042F0200282610A68D20603D5826942F027
:10234000100282610A68920603D5826942F008028F
:1023500082610A68520603D5826942F004028261F2
:102360000A68120603D5826942F002028261F220F5
:10237000086070470C3C0240B0AD0020124970B5B7
:1023800005460020886101F0BDFB104C064609E0BF
:10239000681C07D025B101F0B5FB801BA84201D90C
:1023A000032070BD2068C003F2D4206810F0F20F43
:1023B00003D0FFF7B7FF012070BD2068C00701D030
:1023C00001202060002070BDB0AD00200C3C024018
:1023D000F0B5D1E90843CD690A68C2B10268254366
:1023E00022F4F84213431D430560D1E90125D1E9E8
:1023F00003364C692A434568334389691A43EB0B1A
:102400002243DB030A431A4342600020F0BDD1E9B6
:10241000012ED1E9036CD1E9057142EA0E0246EAC8
:102420000C0632433A430A4301682A4322431A43C3
:102430006FF30E010A430260E7E7426943F6FE7359
:102440009A4342EA410141610020704770B591E82A
:102450001C00C9686FF01F0506691A4305EB441498
:1024600044EA41210A4306EA45431A430261002037
:1024700070BD00002DE9F04F8B8A6FF00F05264CE0
:102480004FF07F4BD1F80C9004EB03536FF0FF0437
:102490004FEA042A1AB386684FEA09321F4FA2F5A1
:1024A00080521A433E4032438260D1E900278E6851
:1024B000521E05EB07150F8A2A43C56804EB062454
:1024C0000E7E0AEB074322431A430BEB06610A43D5
:1024D00005F070431A43C2600020BDE8F08F91E818
:1024E00004110F4E521E0F8A05EB08152A4304EB08
:1024F0000C2C06EB09350E7E42EA0C022A43856855
:102500000AEB074422431A430BEB06610A4305F02A
:1025100070431A438260DFE70000F0FFFF0F0FFFF8
:1025200000F0FFFF70B5094A002303E0C55C5C1CA6
:10253000D554A3B28B42F9D305480A46034908F0A3
:10254000E7FDBDE87040024808F058BEBC790020A5
:10255000E03400202049214B48425FF0000210B5D2
:1025600000EE101A03EB8204F8EEC00A94ED000AA4
:10257000B4EEE00AF1EE10FA03DDFDEEC00A10EE53
:10258000901A00EE900AF8EEE00AB4EEE00AF1EEDE
:1025900010FA03D2BDEEC00A10EE100A521CFF2A38
:1025A000DEDB081A00EE100AF6EE000AB8EEC00AEA
:1025B00020EE200AB0EEC00A10EE100A1CF04AFA13
:1025C0009FED071B53EC112B1BF090FF1BF0FAFE45
:1025D0000549886210BD0000806967FF00E808C0F7
:1025E000000000000000703F4000002001497320FF
:1025F000086070470C3C024010B586B000210224F0
:1026000007220123481E8DE81F0001A8694600F03B
:1026100071FF10B90098401C02D0002006B010BD18
:102620000120FBE72DE9F0410B4D5FF000040B4E5C
:1026300040F6C8170023022005EB840156F8242039
:1026400000F0A8FF10B10020BDE8F081641CBC427E
:10265000F0D30120F8E7000000000C082805002056
:10266000064A0020064B10B540F6C81452F8201058
:1026700043F82010401CA042F8D310BD00000C0805
:10268000280500202DE9F0412DED068B9FED588B9C
:10269000594C1E2554F825001CF0DCF953EC182B7E
:1026A0001BF054FC6D1CADB241EC180B502DF1D356
:1026B0009FED529B51EC180B53EC192B1BF0FAFCBD
:1026C000504D41EC180BE869B0F1804F32D1D4ED98
:1026D000501A94ED2D1A94ED410AB0EE002A71EED5
:1026E000810A4949264640EE420A10EE900A884285
:1026F00008DD21EE811A00EE401A81EE200A85EDF8
:10270000090A17E05FF01E0756F827001CF0A2F92F
:1027100053EC182B1BF01AFC7F1CBFB241EC180BBA
:10272000502FF1D353EC192B51EC180B1BF0C2FCBA
:1027300041EC180B95ED039A5FF01E0654F82670D5
:1027400038461CF087F953EC182B1CF099F841EC33
:102750001A0B38461CF07EF953EC182B1CF090F83D
:1027600053EC1A2B1BF0C2FE41EC1A0B19EE100AA7
:102770001CF070F953EC1A2B1BF0E8FB1BF0B4FBB8
:10278000761CB6B209EE100A502ED7D385ED039A07
:10279000DFED1E0A89EE200A10EE100A1CF05AF92D
:1027A00041EC100B18F056FC51EC100B1BF09CFB8D
:1027B00000EE100ADFED160A51EC180BBDEEC00A50
:1027C000B8EEC00A20EE200A85ED030A9FED110B3A
:1027D00053EC102B1BF08AFE1BF0C4FD00EE100A18
:1027E000B8EEC00A85ED0C0ABDEC068BBDE8F081A1
:1027F000000000000000000000DC08C00000000035
:10280000000049404000002000007A440000484297
:102810000000803B000000000000703F2DE9F04107
:102820002DED068B9FED5C8B5D4C1E2504EB85002A
:10283000D0F85C011CF00EF953EC182B1BF086FB52
:102840006D1CADB241EC180B502DEFD39FED559B95
:1028500051EC180B53EC192B1BF02CFC534F41EC93
:10286000180BF869B0F1804F36D1D4EDA70A94ED7A
:10287000841A94ED980AB0EE002A70EE811A4C4941
:10288000264640EE421A11EE900A88420ADD60EEBA
:10289000810A40EE400A80EEA10A10EE100A1CF0F8
:1028A000D9F817E05FF01E0506EB8500D0F85C0153
:1028B0001CF0D0F853EC182B1BF048FB6D1CADB28C
:1028C00041EC180B502DEFD353EC192B51EC180B96
:1028D0001BF0F0FB41EC180B97ED049A5FF01E051E
:1028E00004EB8500D0F85C6130461CF0B3F853EC83
:1028F000182B1BF0C5FF41EC1A0B30461CF0AAF850
:1029000053EC182B1BF0BCFF53EC1A2B1BF0EEFD05
:1029100041EC1A0B19EE100A1CF09CF853EC1A2B20
:102920001BF014FB1BF0E0FA6D1C09EE100A502D91
:10293000D6DB87ED049ADFED1F0A89EE200A10EE40
:10294000100A1CF087F841EC100B18F083FB51ECD7
:10295000100B1BF0C9FA00EE100ADFED170A51EC5C
:10296000180BBDEEC00AB8EEC00A20EE200A87EDB3
:10297000040A9FED120B53EC102B1BF0B7FD1BF05C
:10298000F1FC00EE100AB8EEC00A87ED0B0ABDECB0
:10299000068BBDE8F0810000000000000000000090
:1029A00000DC08C00000000000004940400000209A
:1029B00000007A44000048420000803B0000000014
:1029C0000000703F0B49002010B501220870402123
:1029D000094801F092F8094C00224FF400412046CA
:1029E00001F08BF801222046BDE81040110201F0F1
:1029F00084B8000040000020001C0240000002409B
:102A00000A49022010B5002208704021084801F050
:102A100074F8084C0122D103204601F06EF8002220
:102A20002046A115BDE8104001F067B84000002025
:102A3000001C0240000002400B49012010B500229A
:102A400008704021094801F058F8094C00224FF461
:102A50000041204601F051F801222046BDE8104017
:102A6000110201F04AB8000040000020001C0240A2
:102A700000000240F8B50025009590F83C20012A9E
:102A80001DD0012280F83C20674C0723D6070A6836
:102A9000092A22D9B24220D007680A3A02EB420C36
:102AA000FA6803FA0CF39A43FA600A68A24208D162
:102AB00002680B7AD76847EA0363D36024E00220F8
:102AC000F8BD07680A3A8B6802EB4202D7F80CC0DF
:102AD000934043EA0C03FB6016E0076802EB4202F6
:102AE00002F01F0C3A6903FA0CF39A433A61026848
:102AF0000F788B68D2F810C007EB470707F01F0765
:102B0000BB4043EA0C0313614A681F23072A16D20D
:102B10000768521E02EB820C7A6B03FA0CF39A439D
:102B20007A6303680F790A887F1ED3F834C092B2A3
:102B300007EB8707BA4042EA0C025A632DE00768A8
:102B40000D2A15D2D21F02EB820C3A6B03FA0CF35A
:102B50009A433A6302680F790B88FF1FD2F830C09E
:102B60009BB207EB8707BB4043EA0C03136314E0F7
:102B70000D3A02EB820CFA6A03FA0CF39A43FA62FA
:102B800002680F790B880D3FD2F82CC09BB207EB7F
:102B90008707BB4043EA0C03D362244A036893428D
:102BA00008D10B68B34205D1D2F8043323F44003B3
:102BB000C2F80433036893420ED10B68122B0BD179
:102BC000D2F8043323F40003C2F80433D2F80433F8
:102BD00043F48003C2F804330368934220D10B68A6
:102BE000A34201D0112B1BD1D2F8043323F480036C
:102BF000C2F80433D2F8043343F40003C2F80433B8
:102C00000968A1420CD10A490A4A0968B1FBF2F1EC
:102C100001EB8101490000E0491E00910029FBD130
:102C200080F83C500020F8BD120000100020014048
:102C30008C02002040420F0070477047704770B50B
:102C400004004FF0000503D0206C002610B107E00F
:102C5000012070BD204600F01DF8666484F83C60D9
:102C6000206CC00610D4206C20F4885040F0020084
:102C700020642046FDF736FF6664206C20F00200D9
:102C800040F00100206400E0012584F83C60284603
:102C900070BD0000F0B587B0064614216846FDF708
:102CA000FBFC1E493068884236D11D48016841F45A
:102CB00080610160006800F4806005901848143855
:102CC000016841F02001016000680025032100F047
:102CD000200005904FF4C0608DE82300114869463C
:102CE00000F0DAFD104C4FF0806110484FF4807C0A
:102CF0004F13021584E82300C4E90352C31420468D
:102D0000C4E907C56562C4E9053700F031FB08B1C5
:102D1000FFF774FAB463A66307B0F0BD0022014068
:102D200044380240001402401C2E00202864024057
:102D3000F8B50D4604460021134600910A4690F866
:102D40003C00012807D0012084F83C0020688668F8
:102D5000F60702D011E00220F8BD87683B4E47F02D
:102D6000010787603A480068B0FBF6F000EB4000CE
:102D700000E0401E00900028FBD120688668F6071E
:102D800059D0226C40F20166B24342F48072226450
:102D90004068400505D5206C20F4005040F4805078
:102DA0002064206CC00404D5606C20F006006064D0
:102DB00000E061646FF0220084F83C10A26B2549AA
:102DC000D163A26B24491164A26B2449D1642168A8
:102DD00008602068416841F0806141602068816836
:102DE00041F48071816021682A46A06B4C3100F06B
:102DF00031FB1B490246D1F80403C006206811D0FC
:102E0000884207D1836813F0405F03D1836843F0A1
:102E100080438360D1F80403C00614D411492068AC
:102E2000884210D1816811F0405F0CD1816841F077
:102E30008041816007E0206C40F010002064606CED
:102E400040F0010060641046F8BD000040420F00F1
:102E50008C020020570A0008DB0A0008C50A000897
:102E60000020014000220140F0B50446C8074FF0A1
:102E7000000010D01E23012603F01F0706FA07F5F5
:102E80000D4201D15B1EF7D27AB1082A0BD0102A6D
:102E900006D0182A01D00120F0BD072BFBD204E098
:102EA000082BF8D201E0102BF5D223685961216874
:102EB0008B6823F0180313438B60F0BD10B504003A
:102EC00010D0607F20B900202077204600F032F833
:102ED00021790220607739B1D4E902122046FFF748
:102EE000C3FF48B1012010BD216811484861206826
:102EF000816821F0180181606079A0B121682069A2
:102F00000861012220686369816821F0600119432A
:102F100081602068A369816821F080011943816084
:102F20006277002010BD21684FF0FF30E8E7000015
:102F3000B71DC10408B500680649884208D1064893
:102F4000016841F480510160006800F480500090F5
:102F500008BD0000003002403038024070472DE9C3
:102F6000F0470446006800274FF004084FF00109BD
:102F700046680568F10714D0E90512D5036823F403
:102F800080730360E06B40F00100E0632068C0F8EC
:102F9000089084F8398084F83870616909B1204656
:102FA0008847B00615D5A80413D5206820220368E9
:102FB00023F40053036020688260E06B40F002005D
:102FC000E06384F8398084F83870616909B120467B
:102FD0008847300715D5280513D5206808220368CF
:102FE00023F40063036020688260E06B40F004001B
:102FF000E06384F8398084F83870616909B120464B
:10300000884770070CD568050AD52068026822F445
:10301000806202602068C0F80880204600F05AF8FC
:10302000B00713D5A80511D520680222036823F440
:103030000073036020688260E06BE06384F839907D
:1030400084F83870216909B120468847F00612D506
:10305000E80410D52068016821F4805101602268DD
:1030600010219160E16BE16384F83990204684F887
:103070003870FFF773FFBDE8F08770B5040004D027
:1030800094F83900002510B106E0012070BD2046FB
:1030900084F8385000F020F8022084F83900D4E990
:1030A00000030121026822F440321A4302602068C2
:1030B000A368426B22F007021A4342632068E36868
:1030C000026C6FF30D021A430264E56384F8391051
:1030D000002070BD7047000008B500680B498842A9
:1030E00012D10B48016841F4000101600068002220
:1030F0000F2100F4000000905A2001F083FCBDE88D
:1031000008405A2001F071BC08BD000000B0024028
:10311000303802402DE9F041876D044600F0F2FCA2
:10312000064694F835000025022806D08020606508
:10313000012084F83450BDE8F0812068016821F056
:10314000160101602068416921F080014161206C15
:1031500008B9A06C20B12068016821F00801016065
:103160002068016821F0010101600CE000F0CAFC58
:10317000801B052807D920216165032084F83500CC
:1031800084F83450D7E720680068C007EED194F87F
:103190005C203F2001219040B86084F83510002069
:1031A00084F83450C7E790F83510022903D0802105
:1031B000416501207047052180F8351000680168DD
:1031C00021F0010101600020704790F83500704740
:1031D0002DE9F84304464FF00009644B0820CDF870
:1031E00000904FF41652A56D94F85C101B682E6881
:1031F000B3FBF2F700FA01F131420FD021680A68FF
:1032000052070BD50A6822F004020A6094F85C1099
:103210008840A860606D40F00100606594F85C1023
:103220004FF0010808FA01F0304208D021684969DE
:10323000090604D5A860606D40F00200606594F84E
:103240005C1004208840304208D021680968890752
:1032500004D5A860606D40F00400606594F85C10CF
:1032600010208840304218D021680968090714D519
:10327000A86020680168490304D50068000308D5E8
:10328000A16C07E00168C90503D4016821F00801B9
:103290000160216C09B12046884794F85C10202019
:1032A0008840304231D021680968C9062DD5A86010
:1032B00094F8350005282068016806D0490347D5F1
:1032C000006800031DD4616C1CE021F01601016050
:1032D0002068416921F080014161206C08B9A06C2F
:1032E00020B12068016821F00801016094F85C3089
:1032F0003F229A40AA6084F8358084F83490216D8A
:103300001FE0E16B09B120468847606D00282BD093
:10331000606DC00714D0052084F83500206801686E
:1033200021F0010101600098401C0090B84203D8D0
:1033300020680068C007F6D184F8358084F834909E
:10334000E16C002910D001B02046BDE8F0430847E9
:103350000168C905D5D4036823F01003036084F81D
:10336000358084F83490CCE7BDE8F8838C020020E7
:103370002DE9F047044600F0C5FB06465CB1002588
:10338000022084F8350084F834502068016821F068
:10339000010101600DE00120BDE8F08700F0B2FB03
:1033A000801B052805D920216165032084F835009C
:1033B000F2E720680068C007F0D1D4E90010D4E932
:1033C0000232D4E9046C1843D4F8188004F11C03C9
:1033D0008946324309681043C8CB1D4A40EA0C00B5
:1033E00040EA0800114040EA030040EA0600042FCA
:1033F00040EA010003D1D4E90B1211430843C9F894
:1034000000002068666A4069042E20F0070046EA42
:1034100000060CD1D4E90A01064341B12046FEF76B
:1034200003FE20B14020606584F83550B3E7206882
:1034300046612046FEF7E4FD94F85C303F2101220E
:1034400099408160656584F835200020A4E700007C
:103450003F8010F02DE9F041044690F8340000253B
:103460000128A66D0ED094F835C00127002084F8FD
:103470003470BCF1010F07D0022584F834002846CF
:10348000BDE8F0810220FBE7022784F83570606513
:103490002046FEF7F3FD94F85C103F208840B060B2
:1034A0002068016841F0160101602068416941F01F
:1034B00080014161206C20B12068016841F0080161
:1034C00001602068016841F001010160D7E7000058
:1034D00070B5044600F016FB0546601C02D0044897
:1034E0000078044400F00EFB401BA042FAD370BDEC
:1034F000800200202DE9F04704461F480F46017D59
:10350000012909D001214CF2503980460175484605
:10351000FEF734FF18B12AE00220BDE8F0874FF033
:10352000FF3139602168154D012901D0666819E025
:10353000207BFEF78FFE4846FEF720FF296821F02A
:103540000401296013E0217B3046FEF759FE48460E
:10355000FEF714FF296821F07A01296008B13E6066
:1035600005E0761CD4E901211144B142EBD80022D8
:1035700088F81420D1E70000B0AD0020103C0240D4
:103580000348016841F000410160002070470000DD
:10359000103C02402DE9F0471D4D074614461E46DB
:1035A0008946287D012808D001204CF25038287522
:1035B0004046FEF7E3FE18B126E00220BDE8F087A2
:1035C00037B1012F09D0022F0CD0032F14D10EE0F8
:1035D0004846E1B2FEF754FE0EE0A1B24846FEF7BF
:1035E00079FE09E021464846FEF788FE04E02246BF
:1035F00033464846FEF756FE4046FEF7BFFE0549F5
:103600000A6822F001020A6000212975D6E700004D
:10361000B0AD0020103C02400849002010B50A68F7
:10362000002A09DA054A064B0C3A064C136014606E
:103630000968002900DA012010BD0000103C02409A
:1036400023016745AB89EFCDF0B587B014216846FB
:10365000FDF722F82148016800293CD101210160D1
:103660001F48016841F00101016000680224002543
:10367000694600F00100059003264FF683700C2781
:103680008DE8F100174800F007F948F23310694659
:103690008DE8F100144800F0FFF84CF20370694621
:1036A0008DE8F100114800F0F7F84FF63F00694649
:1036B0008DE8F1000E4800F0EFF8282069468DE80B
:1036C000F1000C4800F0E8F8082069468DE8F100A8
:1036D000094800F0E1F807B0F0BD00003401002017
:1036E000383802400010024000180240000C02402E
:1036F00000140240001C0240000802402DE9F04F77
:10370000DFF82CE100224FF001094FF00F0A00BF53
:1037100009FA02F401EA0403A3427DD122F0030670
:1037200076444FEA827CD6F808784FEA1C7CDFF8B2
:1037300004810AFA0CFB40450BEA070501D100277A
:103740002DE03D4FB84201D1012728E03B4FB84260
:1037500001D1022723E03A4FB84201D103271EE0EE
:10376000384FB84201D1042719E0374FB84201D190
:10377000052714E0354FB84201D106270FE0344F3A
:10378000B84201D107270AE0324FB84201D10827D9
:1037900005E0314FB84201D1092700E00A2707FAB6
:1037A0000CF7AF421ED12D4DD5F800C02F1D2CEACD
:1037B000030CC5F800C03D68DFF8A0C09D433D6024
:1037C0000CF10C0CDCF80070ACF104059F43CCF854
:1037D00000702F689F432F60D6F8085825EA0B0524
:1037E000C6F8085806680323D7084FEA42084FEA8C
:1037F000427C03FA08F34FEADC6C9E4306600AFA47
:103800000CF500EB87073E6AAE433E62C5689D43F8
:10381000C5604568A54300E003E0456084689C43BB
:103820008460521C102AFFF473AFBDE8F08F0000D3
:103830000030014000000240000402400008024045
:10384000000C024000100240001402400018024028
:10385000001C02400020024000240240003C0140C5
:10386000B0F5804F06D0402806D1002203488021C1
:1038700000F043B906F088BF704700000014024012
:10388000044910B50A68024202D00860FFF7E8FF59
:1038900010BD0000143C01402DE9F84FDFF80CB2D8
:1038A000012403254FF00F0A00220BF1040E00BF84
:1038B0000B6804FA02F63340B34278D10F7907F06F
:1038C0000307012F01D0022F1AD187684FEA42095E
:1038D000D1F80CC005FA09F827EA08070CFA09FC28
:1038E0004CEA070CC0F808C0476891F804C0B74319
:1038F000CCF3001C0CFA02FC4CEA070CC0F804C024
:103900000E79F643B6070BD0C6684FEA420C8F68B3
:1039100005FA0CF826EA080607FA0CF73743C760E1
:103920000E7906F00306022E12D1D6084FEA42782D
:1039300000EB860600960F69D6F820904FEAD8660D
:103940000AFA06FCB74029EA0C063743009E3762A4
:103950000F7906684FEA420C07F0030705FA0CF8E6
:1039600007FA0CF726EA0806374307604E6816F494
:10397000403F1CD04E4E376847F48047376036686A
:1039800022F00308970706F480460096494E3F0F41
:103990004644B146D6F80868DFF81C810AFA07FCED
:1039A000404526EA0C0603D14FF0000C41E076E0DA
:1039B000DFF808C1604502D14FF0010C39E0DFF8B3
:1039C00000C1604502D14FF0020C32E0DFF8F4C0D4
:1039D000604502D14FF0030C2BE0DFF8ECC06045EE
:1039E00002D14FF0040C24E0DFF8E0C0604502D1C2
:1039F0004FF0050C1DE0DFF8D8C0604502D14FF054
:103A0000060C16E0DFF8CCC0604502D14FF0070C81
:103A10000FE0DFF8C4C0604502D14FF0080C08E0A9
:103A2000DFF8B8C0604502D14FF0090C01E04FF05B
:103A30000A0C0CFA07FC4CEA060CC9F808C84F68D7
:103A4000DBF80060FF0226EA030600D51E43774636
:103A5000CBF80060D1F804C0DEF800605FEA8C2C7F
:103A600026EA030600D51E43DFF840C03E60ACF1F5
:103A7000040C4F68DCF80060BF0326EA030600D59B
:103A80001E430A4FCCF80060083FD1F804C03E68DE
:103A90005FEACC3C26EA030600D51E433E60521C7A
:103AA000102AFFF405AFBDE8F88F0000083C014084
:103AB000443802400030014000000240000402404F
:103AC00000080240000C02400010024000140240B6
:103AD00000180240001C0240002002400024024066
:103AE0000069084000D001207047426921EA0203C2
:103AF0000A4043EA0241816170470AB1816170471F
:103B00000904FBE70148806870470000800200203C
:103B100030B590F84120202A24D190F84020012A85
:103B200020D0012380F84030242280F84120202337
:103B300000240268156825F0010515600268156803
:103B400025F480551560026815680D4315600168FD
:103B50000A6842F001020A6080F8413080F8404073
:103B6000002030BD022030BD30B590F84120202A21
:103B700022D190F84020012A1ED0012380F8403045
:103B8000242280F84120202400250268136823F0B5
:103B9000010313600268136823F4706343EA012190
:103BA000116001680A6842F001020A6080F8414031
:103BB00080F84050002030BD022030BD7047704773
:103BC00010B5040014D0242084F841002068016856
:103BD00021F001010160204600F082FB00206064BA
:103BE00084F84100206384F8420084F8400010BD4E
:103BF000012010BD30B403689A691968D243D40516
:103C000009D4CC43240606D4456C4FF4807445F0A7
:103C100001054564DC6153050AD4CB431B0607D478
:103C2000446C4FF4806344F0080444640468E36126
:103C300092050AD4C943090607D4426C4FF40071B7
:103C400042F0020242640268D161416C11F00B0F34
:103C500002D030BC03F012BF30BC70470268436B27
:103C600091691268002B00D0184770477047000018
:103C700070B5040004D094F84100002510B106E0AE
:103C8000012070BD204684F8405000F063FB2420E2
:103C900084F841002068016821F001010160D4E945
:103CA000001020F0706008612068816821F40041F4
:103CB0008160E06821680128A06830D040F40440A9
:103CC0008860E0680228206841682BD021F40061F8
:103CD000416020682021154A4368134343602068EF
:103CE000C26822F40042C26054F8106B0DCC10433D
:103CF00040EA0320F06054F81C3CD4E90002104371
:103D0000186054F81C0D026842F0010202606564FC
:103D100084F84110256384F84250002070BD40F4BF
:103D20000040CDE741F40061D2E7000000800002CE
:103D30002DE9FC5F002504461E4693460195894601
:103D400090F84100AA4620287BD120688069C043B2
:103D5000000476D594F84000012872D0012184F83F
:103D6000401024204FF0200884F841006564E0688A
:103D700001280AD0344A354949EA0200084021683E
:103D80004860FFF7BFFE07460AE0314A3149F3E7D2
:103D9000701C05D0FFF7B6FEC01BB04246D8A6B3D4
:103DA000206881698269C1F34010C2F300110843A1
:103DB000EED020688169C943C90619D5002233466F
:103DC00020212046009704F0D4FC38B1606C042810
:103DD00018D12168C1F81C8065641AE02168C1F817
:103DE0001C8084F84180002084F84050BDE8FC9F8E
:103DF0001021C1610022334620212046009704F0A3
:103E0000B8FC18B14FF0010A03E00FE02168C1F8D7
:103E10001C800198401C01905845014604D2BAF11B
:103E2000010F01D14FF0000A5945A0D384F8418019
:103E3000606C84F8405040F0200060640120D5E7B9
:103E4000FFE70220D2E7000000280002FF2B00025B
:103E500000200002FF2300027047000010B5006838
:103E6000184988422CD1184A10787F280ED900F0C2
:103E70007F0115480022083002230270024641707B
:103E8000D021BDE81040114800F074B89078FEF7DA
:103E900095F80D4B9B1F98705078FEF78FF858706F
:103EA0001078FEF78BF818709079FEF787F8587144
:103EB0005079FEF783F818711079FEF77FF8D87003
:103EC00010BD00000054004042010020242F0020BB
:103ED00000680549884205D10823044A0448D021D6
:103EE00000F008B870470000005400404201002074
:103EF000242F0020F8B5044690F84100202831D145
:103F000020688069C04300042CD594F84000012843
:103F100028D0154E2227102084F84170002584F8FF
:103F20004200656463850120E662638D0F4E66631F
:103F3000FF2B626284F8400001D9030602E0608D25
:103F40004FF0007320850A480090204694F82820FE
:103F500004F0E2FB0221204684F8405003F0EEFC1E
:103F60000020F8BD0220F8BD0000FFFFA18100087D
:103F700000240080F8B5044690F84100202846D17E
:103F800020688569ED432D0441D594F84050012DFA
:103F90003DD0DFF880C02126102784F8416000253D
:103FA00084F8427065646385C4F82CC0638D012772
:103FB000194E6663FF2B194E626284F8407003D974
:103FC000FF272785F30206E0678D4FF000732785F2
:103FD0003F043F0C0ED012788262606A401C60621F
:103FE000608D401E6085208D401E2085401C0096FF
:103FF000C2B201E000220096204604F08DFB0121B0
:10400000204684F8405003F099FC0020F8BD0220BF
:10401000F8BD00000000FFFFA18100080020008023
:10402000704770472DE9FF4F83B0044690F8410078
:104030009B46DDE91087DDF848A0202876D15FEAAD
:10404000080015D0A7B194F8400001286ED04FF0B9
:10405000010984F84090FFF755FD01220646192317
:104060000090D103204604F084FB002872D103E0C5
:104070004FF4007060646DE00025C4F824802221B4
:1040800084F84110402084F84200656467855B46EF
:1040900065632046CDE900A6DDE9041204F0CEF9FF
:1040A00010B184F8405055E0618D4FF0807734486E
:1040B0004FF00078FF2905D9A4F828904A463B46DE
:1040C000009005E0618D43462185009094F82820FA
:1040D0002046049904F020FB002253460421204688
:1040E000009604F046FBA8BB2068616A406A08702D
:1040F000606A401C6062208D401E81B22185608D07
:10410000401E6085608DE0B1D9B900225346802100
:104110002046009604F02DFBE0B9608DFF2806D9FB
:10412000A4F828904A463B46009506E026E0608DBC
:1041300043462085009594F828202046049904F0F1
:10414000EBFA608D0028C7D132465146204604F074
:104150004EFB18B1012007B0BDE8F08F2068202188
:10416000084AC161206843681340436084F84110E5
:1041700084F84250002084F84050ECE70220EAE73F
:104180000024008000E800FE2DE9FF4F83B00446C4
:1041900090F841009A469346DDE91087DDF8489093
:1041A000202871D15FEA080014D09FB194F8400034
:1041B000012869D0012084F84000FFF7A3FC012208
:1041C000064619230090D103204604F0D2FA0028B5
:1041D0006ED103E04FF40070606469E00025C4F81C
:1041E0002480212184F84110402084F84200656435
:1041F0006785534665635A4604992046CDE9009683
:1042000004F04EF910B184F8405051E0608DFF2762
:104210004FF08078FF284FF0007A04D927853A467E
:104220004346009505E0608D53462085009594F83F
:1042300028202046049904F06FFA32464946204669
:1042400004F001FBA0BB606A216800788862606AA4
:10425000401C6062608D401E6085208D401E80B2D3
:104260002085618DD9B1D0B900224B4680212046EE
:10427000009604F07EFAD8B9608DFF2805D927850D
:104280003A464346009506E026E0608D5346208579
:10429000009594F828202046049904F03DFA608D9A
:1042A0000028CAD132464946204604F0A0FA18B187
:1042B000012007B0BDE8F08F20682021074AC161C6
:1042C000206843681340436084F8411084F84250EA
:1042D000002084F84050ECE70220EAE700E800FE06
:1042E00070B502681748164984158A4214D10168CE
:1042F00021F4001101602146134C2046FFF7FEF91E
:1043000061152046FFF7FAF91F2000F05DFBBDE8BC
:104310007040202000F058BB0C498A420ED1016841
:1043200021F4000101600A4D80212846FFF7E6F9DB
:1043300021462846BDE87040FFF7E0B970BD000097
:10434000005400404038024000040240005C00403D
:10435000001C02402DE9F043A7B00446142121A817
:10436000FCF79AF984216846FCF796F92168012642
:10437000354C0427354A0020334D103491424FF01C
:10438000120937D10914009180461990684601F04E
:1043900011FC08B1FDF732FF286840F002002860E8
:1043A00028684FF4407221A900F00200CDE9257081
:1043B000CDE921292648CDE92368FFF76DFA206869
:1043C00040F400102060206800220C2100F400104E
:1043D00026901F2000F016FB1F2000F006FB002295
:1043E0000C21202000F00EFB202000F0FEFA27B068
:1043F000BDE8F083174A9142F9D14FF48031009122
:104400001B90684601F0D6FB08B1FDF7F7FE28685F
:1044100040F08000286028684FF4C071032200F04B
:104420008000CDE9211921A9CDE925700A48CDE9FF
:104430002362FFF731FA206840F400002060206812
:1044400000F400002690D2E73038024000540040CB
:1044500000040240005C0040001C024070477047AE
:104460000248816802781144816070478002002010
:10447000074810B5016841F480710160032000F025
:10448000E1FA0F2000F006F800F066FA002010BDF7
:10449000003C024030B505461C4887B0016841F435
:1044A00080210160006806A900F48020009001A826
:1044B00001F0A0FE01F0C4FE154940000022154B9A
:1044C000B0FBF1F1144840F2E7340360C0E9034265
:1044D000491EC0E90112826102F0B2FB040012D150
:1044E0000D4802F08FFC04000DD11A2000F07DFA77
:1044F000102D07D2002229461A2000F083FA07481F
:10450000056000E0012407B0204630BD4438024079
:1045100040420F0000480140603300208402002028
:104520002DE9F041044690F8A00016460F460128F8
:104530001DD0012584F8A050022084F8A10006EBCC
:10454000860000EBC600342204EB80003830FCF714
:1045500069F832463946204604F02CFA21680020DA
:104560004D6284F8A15084F8A000BDE8F0810220DB
:10457000FBE770472DE9F0410446006800274FF043
:104580000408856B466B690715D5710713D5426B17
:1045900022F0040242632068C0F83C80D4F8A400F2
:1045A00040F00100C4F8A40084F8A180204684F8FB
:1045B000A070FFF7DEFFA80716D5B00714D5206856
:1045C0000222436B23F0020343632068C263D4F8E2
:1045D000A40040F00200C4F8A40084F8A1802046A2
:1045E00084F8A070FFF7C5FF05EA06004FF0010848
:1045F000C0070ED021684A6B22F001024A6321688D
:10460000C1F83C8084F8A180204684F8A07000F0B6
:1046100075F8280710D530070ED520680822436B9F
:1046200023F0080343632068C26384F8A180204616
:1046300084F8A07000F040F9BDE8F0812DE9F04168
:10464000040004D094F8A100002518B107E001206F
:10465000BDE8F081204684F8A05000F07BF80220ED
:1046600084F8A10020680123816921F070418161F3
:10467000D4E90010D4E902722669384332438E69C6
:104680001043304388612268A08AA16941EA004151
:1046900091602268A08B216A41EA0041D1602268C2
:1046A000A08CA16A41EA004111612268A08D216BB2
:1046B00041EA00415161226894F8351094F83600BF
:1046C000D66A000406F07F46D662226840EA0120DE
:1046D00094F83460D16A31430143D1622068416B60
:1046E00041F0060141632068816941F00101816167
:1046F000C4F8A45084F8A1300020A9E7124910B5ED
:10470000124A134C0B6811888B4212D1518800F069
:10471000B1F8206890F86610491C80F866100BF01C
:10472000F3FB20680EF08EFFBDE8104000200FF074
:10473000F2BF00F09FF800200FF0EEFF2068016844
:10474000C969BDE810400847406801407002002078
:10475000EC040020F0B5A7B00446142121A8FBF713
:104760009BFF84216846FBF797FF3C4920688842FD
:1047700071D1022403260820009000256846642198
:104780000522CDE905140123CDE90726CDE90A3537
:1047900001F010FA08B1FDF731FD3148016841F030
:1047A00080610160006800F0806026902C48143819
:1047B000016841F480610160016801F48061269123
:1047C000016841F040010160016801F0400126915B
:1047D000016841F480710160016801F480712691E3
:1047E000016841F400710160006821A90E2700F4FE
:1047F00000702690F72081E8F1001A48FFF74CF886
:1048000009214FF48050CDE9246121A981E83100CC
:104810001548FFF741F821A94FF48C4081E8F100D9
:104820001248FFF739F821A948F67C6081E8F100C9
:104830000F48FFF731F800220F21582000F0E2F86E
:10484000582000F0D2F800220F21592000F0DAF8A9
:10485000592000F0CAF827B0F0BD00000068014000
:104860004438024000280240001802400020024064
:104870000024024070B590F8A020012A18D00D4DF8
:10488000012380F8A030022280F8A120002450F8F3
:10489000A02B566B26F001065663296050F8A01C29
:1048A0004A6B42F001024A6343700470204670BDB7
:1048B000022070BD4068014070470000154BF0B504
:1048C000083B427813491A600B680A1F23F0010362
:1048D0000B6043681360057BC67A827A437B2D07A1
:1048E000847B45EA0665C77B90F809C0067A90F894
:1048F00000E045EAC24040EA834040EA444040EAE2
:10490000074040EA0C2040EA460040EA0E000860FA
:10491000F0BD0000A0ED00E0BFF35F8F0448002170
:104920000368034A23F480330360703211607047D8
:1049300024ED00E0074A40F00100064970321060A3
:10494000086840F480300860BFF34F8FBFF36F8F6B
:104950007047000024ED00E01A4808B5016841F0F6
:1049600080510160006800F0805000901548001DE3
:10497000016841F480410160006800220A2100F4CE
:10498000804000906FF00B0000F03CF80A210022FC
:10499000C84300F037F80A210022484200F032F8FC
:1049A00001210022881F00F02DF800220A21101F8B
:1049B00000F028F800220F21BDE80840901E00F00A
:1049C00021B800004038024000280DDB410900F00A
:1049D0001F028900012001F1E0219040C1F880010F
:1049E000BFF34F8FBFF36F8F7047002809DB41097A
:1049F00000F01F028900012001F1E0219040C1F880
:104A0000000170470E4BF0B41B680D46C3F3022340
:104A1000C3F10706042E00D90426191D072901D267
:104A2000002300E0DB1E012404FA06F19C40491E2D
:104A30002940641E994014402143F0BC16F0D2BABC
:104A40000CED00E0064900F0070210B54FF6FF0438
:104A50000868044B204040EA02201843086010BD5B
:104A60000CED00E00000FA0501680123C0F8D8341D
:104A7000002280F8CC248869044A40F000608861F4
:104A8000486D104348650020704700000300001087
:104A900070B5164D0446A1B1012911D12068D0F896
:104AA000001E41F00101C0F8001ED4F8DC0406F03D
:104AB0006EFFE07A002803D0286840F006002860E6
:104AC00070BDE07A28B105F085FE286820F0060068
:104AD00028602068D0F8001E21F00101C0F8001EF7
:104AE000D4F8DC04BDE8704006F0ECBE10ED00E048
:104AF0000068416200207047F0B503685D6A39B113
:104B00009F6A4C1E00204FF4827605EB17450BE0A0
:104B100045EA0240986210E0471C06EB800053F81B
:104B200000C0F8B205EB1C45A042F5D34FF48070ED
:104B300000EB810045EA02421A500020F0BDD0F897
:104B4000DC0406F0FDBD01EBC10200EB8202D0F8EF
:104B5000DC04126A06F04DBD01EBC10200EB8202DB
:104B6000D0F8DC04D2F8602206F09FBDD0F8DC0457
:104B700006F0E8BD0A0601F00F0101EBC10100EBF0
:104B8000810101D5143101E001F51571006807F0CC
:104B9000C7BC01F00F020B0670B502EBC201044660
:104BA0004FF001004FF0000504EB810102D548757C
:104BB000143103E081F8555201F515710A7094F82B
:104BC0009424012A08D084F89404206807F0C6F9D8
:104BD000002084F8945470BD022070BD70B5027935
:104BE000044601F00F00904201D9012070BD01F090
:104BF0000F024FF000050B0602EBC2014FF001025D
:104C000004EB810102D54A75143103E081F8555255
:104C100001F515718D70087094F89404012808D07E
:104C200084F89424206807F003FB002084F894544F
:104C300070BD022070BD01F00F0101EBC10100EB5E
:104C40008100D0F8680270472DE9F04101F00F06AD
:104C500004460D064FF0010006EBC6014FF00005BB
:104C600004EB810102D54875143103E081F85552F7
:104C700001F51571C2F30A024F780B718A600E704C
:104C800007B14E83022B00D14D7194F89424012A70
:104C900009D084F89404206807F0B2F8284684F814
:104CA0009454BDE8F0810220FBE770B501F00F05D8
:104CB000002405EBC50100EB810101F5187181E8C5
:104CC0001C0001F80B4C01F80C5D8379012B00D11D
:104CD000CA618279006807F003FB002070BD70B5DF
:104CE0000D460179044605F00F00884201D90120E4
:104CF00070BD29064FF000064FF0010206D500EB0B
:104D0000C00104EB81014A75143107E005EBC501D0
:104D100004EB810181F8556201F515718A70087004
:104D200094F89404012807D084F89424206807F0AC
:104D3000ABFA280702D007E0022070BDA17904F287
:104D40009C42206807F048FA002084F8946470BD03
:104D500070B501F00F04002504EBC401012600EB3F
:104D60008101203181E82C0001F80B6C01F80C4D19
:104D70008379012B00D1CA618279006807F0B0FA0B
:104D8000002070BD2DE9FC5F05680446284607F049
:104D900063FC00287ED1206807F08AFC002879D0C7
:104DA000D5F80808C0F30D20C4F8D404206807F033
:104DB0007FFC800704D52068416901F00201416150
:104DC000206807F075FCC10604F29C40009035D5C0
:104DD0002068816921F0100181612F6A07F00F01BD
:104DE000C7F3434001EBC101022804EB810606F53D
:104DF000157602D0062812D01BE047F6F070074265
:104E000017D0C7F30A12F1681746284607F054FC7A
:104E10007169F068394471613844F06009E00099C3
:104E20000822284607F048FC7069C7F30A110844B5
:104E300070612068816941F010018161206807F08C
:104E400037FC00034FF0080B4FF0000A4FF0010948
:104E50007CD52068002607F00AFC074674E0F807B6
:104E600070D02068F1B207F01BFC8046C00707D065
:104E700005EB4611C1F8089B3146204604F0E2FBE1
:104E80005FEA087024D505EB4611C1F808BBFA4962
:104E9000206800E03EE2026C00EB461001928A427C
:104EA000D0F8081B05D9090403D54FF40041C0F818
:104EB000081B204600F029FBEF490198884207D9DA
:104EC000A079012804D120680121009A07F084F913
:104ED0005FEAC86004D505EB46111020C1F8080B45
:104EE0005FEA88701DD56869000605D5D5F8040805
:104EF00040F48061C5F8041806EBC60004EB80009E
:104F000090F8571200F51570012905D180F803A01B
:104F10002046F1B200F004FA05EB46110220C1F878
:104F2000080B5FEA886004D505EB46112020C1F824
:104F3000080B5FEA884005D505EB46114FF4005099
:104F4000C1F8080B7F08761C002F88D1206807F075
:104F5000AFFB40036ED5206807F082FB00260746B2
:104F600066E0F80762D02068F1B207F087FB804660
:104F7000C00723D0D5F8342806F00F0C05EB4613F4
:104F800009FA0CF08243C5F83428C3F80899A079CF
:104F900001280FD106EBC60004EB8000D0E9072101
:104FA0001144016236B9606A20B920680121009A73
:104FB00007F012F92046F1B2FFF7C5FD5FEA08706D
:104FC00003D505EB4611C1F808B95FEAC86004D5FE
:104FD00005EB46111020C1F808095FEA486004D5C6
:104FE00005EB46114020C1F808095FEA887016D524
:104FF0003146284607F005FB06EBC60004EB8000AF
:10500000C17D1430012905D180F803A02046F1B2FA
:1050100000F082F905EB46110220C1F808095FEAA9
:10502000086003D53146204604F072FB7F08761CE9
:10503000002F96D1206807F03BFB002811DAD5F845
:10504000040820F00101C5F8041894F8CC040128E4
:105050003BD0204600F03EFA2068416901F0004153
:105060004161206807F024FB00050BD5D5F808083E
:10507000C00702D0204600F065FA2068416901F4BB
:1050800000614161206807F013FB00010AD5206828
:10509000416901F00061416194F8CC04E0B120461F
:1050A00000F050FA206807F003FBC00472D5D5F871
:1050B000040820F00100C5F804082068102107F05A
:1050C000A0FA00214FF67F322DE00021204684F81F
:1050D000CCA4FFF7DDFCBFE784F8CC942068406DDA
:1050E0000121C0F38300C4F8D0042046FFF7D0FCB0
:1050F000D8E700BF05EB4110C0F80829D0F8003907
:1051000023F40013C0F80039C0F8082BD0F8003B96
:1051100023F40013C0F8003BD0F8003B43F00063D9
:10512000C0F8003B491C20798842E3D8D5F81C0818
:1051300040F00111C5F81C18E07B68B1D5F884086F
:1051400040F00B01C5F88418D5F8440840F00B0175
:105150002846C5F844180DE0D5F8140842F22B0192
:105160000843C5F81408D5F8100840F00B0128468C
:10517000C5F81018D0F8000820F4FE61C5F8001832
:10518000A1792068009A07F027F82068416901F4A6
:1051900080514161206807F08BFA800416D52068A1
:1051A00006F06EFE206807F04AFAE07101F042F85E
:1051B00023680146E279184607F0DEFA204600F03F
:1051C00073F92068416901F400514161206807F0DA
:1051D0006FFA000707D5204600F080F92068416982
:1051E00001F008014161206807F062FA000615D558
:1051F000A869012620F08001A9610CE006EBC60039
:1052000004EB800090F85702012803D12046F1B248
:10521000FFF7B0FC761C2079B042EFD8206807F089
:1052200047FAC0021FD501264F4614E006EBC60020
:1052300005EB461304EB8001D3F800090A7E012A2E
:1052400008D1002806DAF0B2CF7540F08001204680
:10525000FFF790FC761C2079B042E7D820684169BE
:1052600001F480114161206807F022FA800234D5F0
:1052700001204A4629E000000A30544F00EBC003E9
:1052800005EB401604EB8301D6F8006B91F8583219
:10529000012B19D1002E17DA94F8D434C6F3004646
:1052A00003F00103B3420FD181F85722A96941F0FD
:1052B0008003AB616969090606D4D5F8040840F497
:1052C0000070C5F8040803E0401C21798142D5D85C
:1052D0002068416901F400114161206807F0E8F994
:1052E000400007D52046FFF72AFC2068416901F0FD
:1052F00080414161206807F0DBF940070AD520684A
:105300004568680702D52046FFF730FC20684168F1
:1053100029434160BDE8FC9FD0F8DC0406F065BA83
:10532000D0F8DC0406F075BAF8B5040005D094F89E
:1053300095040025266810B106E00120F8BD20463E
:1053400084F8945400F05CF8032084F89504B6F1D6
:10535000A04F00D1A571206806F038FF207C8DF8A1
:10536000000094E80F0006F099FD0226B8BB206803
:10537000002107F0C1F990BB002001270DE000BF1C
:1053800000EBC001421C04EB81014F750D76CD612D
:105390000D624D620875C885D0B221798142EFD87F
:1053A000002011E000EBC001421C04EB810181F8F8
:1053B000555281F85852C1F85C52C1F86052C1F898
:1053C000645281F85402D0B221798142EAD8207C1B
:1053D0008DF8000094E80F0006F042FE10B184F84A
:1053E0009564AAE7207B657484F89574012802D13E
:1053F0002046FFF739FB206806F024FE0020F8BDA8
:1054000010B5A8B00446142121A8FBF745F9842162
:105410006846FBF741F92068B0F1A04F3ED14FF448
:1054200000100090002468461F9400F0C3FB08B1F0
:10543000FCF7E4FE1A48016841F0010101600068D0
:105440000DF1840C022100F0010026904FF4C050B1
:105450000A238CE8130003221248CDE9242321A952
:10546000FEF71AFA0E48001D016841F08001016044
:10547000006800F08000269009481430016841F46B
:1054800080410160006800220F2100F480402690D6
:105490004320FFF7B7FA4320FFF7A7FA28B010BD63
:1054A000303802400000024070B50446C079012542
:1054B00070B1022801D0FCF7A1FED4F8DC04294623
:1054C00006F017FAD4F8DC04BDE8704006F0CAB95B
:1054D0000025F2E7D0F8DC0406F0F4B9D0F8DC04DB
:1054E00006F0FAB910B5044690F8940401280AD0E1
:1054F0000120617484F89404206807F02CF90020DE
:1055000084F8940410BD022010BDD0F8DC2400F211
:105510009C41104606F0F9B910B5044690F8940481
:1055200001280CD0012084F89404206807F047F883
:10553000206806F079FD002084F8940410BD022054
:1055400010BD000010B50446D0F8DC0406F01FFAC8
:105550002068D0F8001E41F00101C0F8001EE07A7A
:10556000002804D00248016841F00601016010BD26
:1055700010ED00E01848F8B5016841F08051016075
:105580000068164C00F080500090206840F4803095
:105590002060FEF7B7FA4FF47A76054605E000BFC3
:1055A000FEF7B0FA401BB0420FD86068C003F7D5D1
:1055B000206840F400302060FEF7A4FA054606E0BB
:1055C000FEF7A0FA401BB04201D90320F8BD606885
:1055D0008003F5D50020F8BD40380240007000403F
:1055E0000248016841F4807101607047007000401A
:1055F000F8B500250446FEF785FA064694F8410002
:1056000080073AD5002084F84000206801684907E7
:105610000CD5016821F004010160E06BFDF77AFD13
:10562000050003D0606C40F004006064206801272E
:10563000816889061FD5016841F002010160A06CF4
:105640000122022133460090204604F025FA05008D
:1056500013D121680220C8600022A06C20213346AB
:105660000090204604F018FA050006D12068416930
:1056700021F04061416184F841702846F8BD000086
:105680002DE9F84F1E4615468A460446FEF73AFABB
:10569000814694F8400001280ED001274FF0000801
:1056A00084F8407094F84100012807D05FF00200B0
:1056B00084F84080BDE8F88F0220FBE74221C4F85F
:1056C000448084F84110002220214B462046009659
:1056D00004F0E2F90028EBD121682868886221688B
:1056E000686848622168A868C862206829690268F9
:1056F00022F4400242F4800211430160E9684FF055
:1057000000622046CAF82810514604F08BF80122A6
:105710004B4608212046009604F0BEF90028C7D168
:1057200022680821D16084F84170C1E72DE9F84F63
:1057300017468B460446FEF7E5F9824694F840008A
:1057400001280ED001264FF0000884F8406094F83C
:105750004100012807D0022584F840802846BDE892
:10576000F88F0220FBE74FF00209C4F8448084F868
:1057700041900022202153462046009704F08CF9E6
:105780000500E9D100225946204604F04BF8DBF829
:10579000240058B90122534602212046009704F004
:1057A0007BF90500D8D12168C1F80C9084F84160DC
:1057B000D2E710B504000ED02068016821F0010185
:1057C0000160204600F0A8F80020606484F84100E1
:1057D00084F8400010BD012010BD0000F8B504465B
:1057E000FEF790F9064624B194F84100002510B167
:1057F00009E00120F8BD84F84050204600F0B0F8E0
:1058000041F28830A06420686FF0FF02A16803684D
:1058100002EB012223F4F85111430160A06C002235
:10582000202133460090204604F036F930BBD4E9FD
:105830000767226894F804C0E16813683143114E89
:1058400047EA0C6C104F41EA0C0133404FF0010E57
:10585000194311602168D4E90526B4F810C04B68DB
:1058600032433B4043EA0C431A434A6021680A68CA
:1058700042F001020A60656484F841E084F8405017
:10588000F8BD00002FFFFF00FEF8E0FF2DE9F84310
:10589000164688460446FEF735F9034694F840005C
:1058A00001280ED0012084F84000002794F8410020
:1058B000012808D05FF0020584F840702846BDE852
:1058C000F8830220FBE7A06C8221676484F8411012
:1058D000002220210090204604F0DEF80500EBD1E4
:1058E00020687268016821F0080111430160706846
:1058F00008280AD122681021306810632068C1602E
:105900002068016841F4801101604FF04062414617
:10591000204603F087FFCFE710B500680B498842A7
:1059200013D10B48016821F00201016009480421EC
:10593000FDF7E4FE08484421FDF7E0FEBDE8104015
:1059400006484FF46051FDF7D9BE10BD001000A00D
:10595000383802400010024000040240000C0240AF
:105960002DE9F04387B0044614216846FAF794FE07
:105970002B49206888424FD12A48016841F0020132
:105980000160006800F002000590264808380168B0
:1059900041F010010160016801F0100105910168FA
:1059A00041F002010160016801F002010591016806
:1059B00041F0080101600068092701AA4FF00408BE
:1059C00000F00800CDF80080022469460025CDE9EA
:1059D00004700326144882E87000FDF75DFF0A2179
:1059E000DFF848904020CDE903618DE83100694639
:1059F0004846FDF751FF01AACDF8008069464846A8
:105A000082E8F000FDF748FF4FF4605069468DE8EA
:105A1000F1000748FDF740FF07B0BDE8F083000044
:105A2000001000A03838024000100240000402407C
:105A3000000C02402DE9F84F15460F460446FEF7CC
:105A400061F882462068816994F8403000F12009AD
:105A5000012B0DD001264FF0000884F8406094F827
:105A60004120012A06D0022084F84080BDE8F88F4A
:105A70000220FBE7C4F84480BFB3222284F841200F
:105A80000269521CA2630269521C62632763426965
:105A900022F0406242F080624261206881610EE043
:105AA0000621204603F0F8FFE0B999F80000216BC9
:105AB0000870206B401C2063A06B401EA063A06B8D
:105AC00053464FF0010200950028E9D14FF0020142
:105AD000204603F0E1FF28B921680220C860204673
