:020000040800F2
:10000000000202207D030008279A0008A37C000854
:10001000259A0008C517000805D400080000000054
:10002000000000000000000000000000B90200080D
:100030008B2200080000000015030008E1AD000855
:100040009703000897030008970300089703000828
:100050009703000897030008970300089703000818
:100060009703000897030008970300089703000808
:1000700097030008970300088D21000899210008C4
:1000800097030008970300089703000897030008E8
:10009000970300089703000897030008D12200087F
:1000A00097030008970300080DAF000897030008A6
:1000B0009703000829AF000897030008B17C0008E7
:1000C000A57C000897030008970300089703000821
:1000D0009703000897030008970300089703000898
:1000E000B922000897030008970300089703000847
:1000F00097030008970300084DAF00089703000816
:10010000970300089703000835AF0008970300081D
:1001100097030008970300089703000841AF000801
:1001200097030008B121000897030008970300080F
:100130009703000897030008970300089703000837
:100140009703000897030008970300082D9A0008FA
:100150009703000897030008970300089703000817
:100160009703000897030008970300089703000807
:100170009703000897030008970300080000000099
:1001800097030008970300089703000897030008E7
:1001900097030008970300089703000897030008D7
:1001A0009D8E0008918E0008A52100089703000885
:1001B00097030008970300089703000897030008B7
:1001C000970300089703000800F002F800F065F8B4
:1001D0000AA090E8000C82448344AAF10107DA45A2
:1001E00001D100F05AF8AFF2090EBAE80F0013F08F
:1001F000010F18BFFB1A43F001031847283902000A
:10020000483902000A444FF0000C10F8013B13F08B
:10021000070408BF10F8014B1D1108BF10F8015B5F
:10022000641E05D010F8016B641E01F8016BF9D152
:1002300013F0080F1EBF10F8014BAD1C0C1B09D1A9
:100240006D1E58BF01F801CBFAD505E014F8016B1B
:1002500001F8016B6D1EF9D59142D6D370470000AD
:100260000023002400250026103A28BF78C1FBD8BF
:10027000520728BF30C148BF0B6070471FB51FF041
:1002800080FF9DE8030000F0BDFA00F071FA1FBD89
:1002900010B5002000F0F7FA10BD00F0B9FB1146D0
:1002A000FFF7ECFF1CF086FA00F0D7FB03B4FFF772
:1002B000EFFF03BC00F080FA2D4B19680868B0E826
:1002C000F04F80F30988BFF36F8F4FF0000080F389
:1002D000118870470000000008480068006880F33B
:1002E00008884FF0000080F3148862B661B6BFF34F
:1002F0004F8FBFF36F8F00DF00BF00BF08ED00E03E
:10030000DFF80C00016841F470010160704700BF24
:1003100088ED00E0EFF30980BFF36F8F144B1A688C
:100320001EF0100F08BF20ED108A20E9F04F10607A
:1003300009B44FF0500072B680F31188BFF34F8FAD
:10034000BFF36F8F62B61DF00DFD4FF0000080F31C
:10035000118809BC19680868B0E8F04F1EF0100F4A
:1003600008BFB0EC108A80F30988BFF36F8F704725
:1003700094020020EFF30580704700000948804791
:1003800009480047FEE7FEE7FEE7FEE7FEE7FEE777
:10039000FEE7FEE7FEE7FEE704480549054A064B8F
:1003A00070470000B9AE0008C901000800E4012050
:1003B0000002022000F3012000F3012070B5064680
:1003C00000F000FA056806F10B0020F00704B442C3
:1003D0009CBF002070BD2B466A68BAB11068A0426D
:1003E00010D304F1080188423CBF5068586007D31D
:1003F0005168101941601168091B01605860146050
:10040000101D70BD13465268002AE7D121462846C8
:1004100000F0E4F90028DED170BD70B50446051F78
:1004200000F0D0F90068002C14BF446870BD002CA7
:1004300018BFAC423CBF20466468F8D301680A1874
:10044000AA4218BF456003D12A68054611440160DD
:1004500028684119A1421CBF6C6070BD6168696069
:1004600021680844286070BD53EA020C00F06980DE
:100470002DE9F04B4FF00006002B1FBFB3FA83F5B8
:1004800003FA05F424FA05F65E4012BF1643B2FAE9
:1004900082F502FA05F4C5F120051EBF22FA05FC1B
:1004A00044EA0C04203556EA044C4FEA144418BFC1
:1004B000641C4FF000084FF00009904271EB030CF0
:1004C00039D3002919BFB1FA81F701FA07F6B0FA5A
:1004D00080F700FA07F6C7F120071EBF20FA07FCD5
:1004E00046EA0C062037B6FBF4FCA7EB0507103FE5
:1004F00007F01F0BCBF120060CFA0BFB2CFA06F6CB
:1005000044BFB3460026202FA4BF5E464FF0000B29
:100510005BEA060C08BF4FF0010B19EB0B09ABFBB4
:10052000027C48EB0608C01B06FB02CC0BFB03CC8D
:1005300071EB0C01C1E70B46024641464846BDE857
:10054000F08B13B54FF000004FF00001AFF30080C7
:10055000BDE81C40704710B5002000F0B5F9FFF76A
:1005600097FEBDE81040012000F026B92DE9F041CA
:10057000074615460E461020FFF720FF04000AD05C
:100580006760C4E9026500F021F901682160046038
:100590000020BDE8F0810120FBE700000EB5054614
:1005A00014460E4613A000F09DF9284600F09AF973
:1005B00016A000F097F9304600F094F915A000F06D
:1005C00091F900218DF80B100A210DF10A008DF828
:1005D0000A1008E094FBF1F201FB124294FBF1F4E3
:1005E000303200F8012D002CF4DC00F07BF9FFF72D
:1005F000B2FF00002A2A2A20617373657274696F42
:100600006E206661696C65643A2000002C20666982
:100610006C6520002C206C696E652000032A40F276
:10062000308010F0030C00F0158011F8013BBCF194
:10063000020F624498BF11F801CB00F8013B38BFAC
:1006400011F8013BA2F1040298BF00F801CB38BFBA
:1006500000F8013B11F0030300F02580083AC0F0D8
:10066000088051F8043B083A51F804CBA0E8081080
:10067000F5E7121D5CBF51F8043B40F8043BAFF3B3
:100680000080D20724BF11F8013B11F801CB48BF0D
:1006900011F8012B24BF00F8013B00F801CB48BF43
:1006A00000F8012B704710B5203AC0F00B80B1E87C
:1006B0001850203AA0E81850B1E81850A0E8185097
:1006C000BFF4F5AF5FEA027C24BFB1E81850A0E8A0
:1006D000185044BF18C918C0BDE810405FEA827CBA
:1006E00024BF51F8043B40F8043B08BF7047D207D1
:1006F00028BF31F8023B48BF11F8012B28BF20F872
:10070000023B48BF00F8012B704702F0FF0343EAA9
:10071000032242EA024200F0F1B84FF0000200B5B5
:10072000134694469646203922BFA0E80C50A0E814
:100730000C50B1F12001BFF4F7AF090728BFA0E8C2
:100740000C5048BF0CC05DF804EB890028BF40F88E
:10075000042B08BF704748BF20F8022B11F0804FD0
:1007600018BF00F8012B70477047704770470000B2
:1007700070B5064C7C44064D7D4403E0206820445F
:100780008047241DAC42F9D170BD0000CC3302007B
:10079000DC3302002DE9F04117460E46054633B121
:1007A00007FB0354E41B2046B047A542FAD1A5F14C
:1007B0000800BDE8F081000001491820ABBEFEE74B
:1007C0002600020000487047EC41012000487047B5
:1007D0001C420120704770477047704738B5044687
:1007E0000A4600206946AFF30080002808BF38BDE4
:1007F00002460099204600F0B3F8012038BD0120E0
:1008000000F0E6B8F8B5AFF30080054600200C46CE
:10081000102000BF0646A819A0420DD932466946ED
:100820000020AFF30080070008BF00F0D1F8009867
:10083000A04218BF0546C419FFF7C4FF056007466C
:10084000F01D20F007004619284600F00AF8B442CF
:1008500008BFF8BDA21B31463868BDE8F84000F07B
:100860007FB800210160C0E9011070471020704777
:1008700010B500F071F8006810BD10B5044600F026
:100880006BF8046010BD2DE9F0410646FFF79EFFAE
:100890008046454613E016B1E068B0420ED12068AC
:1008A0002860D4E90101D8F8007088472046FFF796
:1008B000B4FDD8F80000B842EBD100E025462C6822
:1008C000002CE8D1BDE8F08110B500F069F8BDE872
:1008D000104000F05FB810B500F082F8BDE810409D
:1008E00000F058B810B5044602E0641C00F026F889
:1008F00020780028F9D110BD4FF000020429C0F083
:10090000128010F0030C3FF40AAFCCF1040CBCF1E0
:10091000020F18BF00F8012BA8BF20F8022BA1EB93
:100920000C01FFF7FCBE5FEAC17C24BF00F8012B7D
:1009300000F8012B48BF00F8012B704708B5694645
:100940008DF800000320ABBE08BD000000487047D2
:10095000E44101207047000000487047E441012055
:10096000034640688C46002818BF88423CBF0346B7
:100970004068F8D318681844884207D00CF1030087
:1009800020F00700001D411A521A0146081D0A6096
:10099000FFF743BD002801D0FFF70EBF70470000EE
:1009A00010B5002102A000F061F8012010BD000088
:1009B000534947414252543A2041626E6F726D6111
:1009C0006C207465726D696E6174696F6E000000F1
:1009D00010B500F065F8BDE81040FFF7DBBF000080
:1009E00010B5002102A000F041F8012010BD000068
:1009F0005349475056464E3A2050757265207669E5
:100A0000727475616C20666E2063616C6C65640045
:100A10007546FFF79BFFAE4605006946534620F03A
:100A20000700854618B020B5FFF7B6FCBDE82040AA
:100A30004FF000064FF000074FF000084FF0000B9A
:100A400021F00701AC46ACE8C009ACE8C009ACE84D
:100A5000C009ACE8C0098D46704710B50446AFF335
:100A600000802046BDE81040FFF720BC70B5054669
:100A70000C460A2000E06D1CFFF760FF35B12878B6
:100A80000028F8D102E0641CFFF758FF14B1207869
:100A90000028F8D1BDE870400A20FFF74FBF0000E2
:100AA00010B5012805D0002103A0FFF7DFFF0120CA
:100AB00010BD09A1F8E7000053494752544D454D78
:100AC0003A204F7574206F662068656170206D65EF
:100AD0006D6F7279000000003A2048656170206DEA
:100AE000656D6F727920636F7272757074656400E2
:100AF000014610B5886B026C12F0500F05D0026CE5
:100B0000D20626D502F09CF910BD016C41F40071AB
:100B1000016401688A6812F0405F17D18269AAB93E
:100B2000CA6A12F4700F02D08A6852050ED44A685D
:100B300022F020024A60016C21F480710164016C92
:100B4000C90403D4016C41F00101016402F076F99B
:100B500010BD806BC26C0846BDE81040104710B550
:100B6000806B40210164416C41F00401416402F05A
:100B700067F910BD10B5806B02F061F910BD00007F
:100B80004A490A6822F440320A600A6843681A43F4
:100B90000A6001684A6822F480724A6001684A6803
:100BA000036942EA03224A6001684A6822F04072FF
:100BB0004A6001684A6883681A434A6001688A6823
:100BC00022F400628A6001688A68C3681A438A60F6
:100BD000816A6FF07062D14214D001688A6822F095
:100BE00070628A6001688A68836A1A438A60016851
:100BF0008A6822F040528A6001688A68C36A1A4390
:100C00008A6009E001688A6822F070628A6001687F
:100C10008A6822F040528A6001688A6822F00202E3
:100C20008A6001688A68836942EA43028A6090F8B0
:100C3000201089B101684A6842F400624A60016884
:100C40004A6822F460424A6001684B68426A521E58
:100C500043EA42324A6004E001684A6822F40062D2
:100C60004A600168CA6A22F47002CA620168CB6AEB
:100C7000828B521E43EA0252CA6201688A6822F4D9
:100C800000728A6001688A6890F8303042EA432234
:100C90008A6001688A6822F480628A6001688A68D2
:100CA000406942EA802088607047000004230140C8
:100CB00030B50C4B5988102912D29888FF280FD8CC
:100CC000094A147855789278240604EB054404EB1D
:100CD0000222064C04EB812141F82020401C988020
:100CE00030BD00002801002055010020001808C078
:100CF000F0B5104C6578202D1BD26D1CEDB26570DF
:100D00000D4F05EB450647F8260007EB86004160CE
:100D100003724272012D0CD1F868A060206138691D
:100D2000E060387D20707A752271E270A078401CF6
:100D3000A070F0BDE0000020582C002010B52DED73
:100D4000048B1B4C04F18001A07891ED008B0128ED
:100D50001ED0022819D19FED170B53EC102B94EDE8
:100D60001C0B51EC100B1EF0B1FE9FED140B41EC6F
:100D7000190B53EC102B51EC180B1EF0A7FE53EC83
:100D8000192B1EF0D3FBC4E91C01BDEC048B10BD74
:100D90000021617284ED1C8B6078401CC0B26070D1
:100DA0001028F2D161700220A07001206072ECE77F
:100DB0004000002000000000295CEF3F00000040E0
:100DC000E17A943F30B49FED431AB0EE410AF0EE61
:100DD000400A1E20404C04EB8001D1ED001A31EE98
:100DE000800A00F1570104EB8101D1ED001A71EE88
:100DF000A00A401C80B25528EDD3F0EE401A9FEDBA
:100E0000372A81EE820AC0EE821A0020344A354B1E
:100E10001E2807D202EB800181ED001A03EB80014E
:100E200081ED001A82ED1D0AC3ED1D1AA0F11E010D
:100E3000372926D2411E9FED2C2A02EB8105D5EDE4
:100E4000000A04EB810560EE822A95ED003ADFEDA1
:100E5000270A02EB800543EE202AC5ED002A03EBAA
:100E60008101D1ED002A00F1560104EB810122EE4F
:100E7000822AD1ED002A03EB800102EEA02A81ED47
:100E8000002A552807D302EB800181ED001A03EBFD
:100E9000800181ED001A401C80B25828B8D3002090
:100EA000134902EB800494ED000A01EB800484ED09
:100EB000000A03EB800494ED000A00F1580401EBF2
:100EC000840484ED000A401C80B25828E9D330BC69
:100ED00000F038BE0000000000E808C000005C42DE
:100EE00000E008C000E408C0CDCC4C3FCDCC4C3E67
:100EF00000DC08C030B500201B4B1E4A9FED1B0ACA
:100F0000DFED1B0A03EB800102EB800591ED001A77
:100F100085ED001A01214C1E02EB842404EB8004B1
:100F200094ED001A03EB812404EB800421EE001AF7
:100F3000D4ED001A02EB812404EB800401EEA01A28
:100F400084ED001A491C89B21029E4D30A4905F539
:100F5000705595ED001A01EB800181ED001A401CDF
:100F600080B2FF28CED930BD005808C06666663F03
:100F7000CDCCCC3D009808C000D808C02DE9F04188
:100F80000E46154698462DED028BB2B09FED258A90
:100F9000002806D02EB1322E00D9322600246F460A
:100FA0000FE0B0EE480A32B0BDEC028BBDE8F08134
:100FB00000EB8401D1ED000A07EB8401C1ED000ACA
:100FC000641CB442F4D3314668461BF0D1FB05EBF8
:100FD0000800B04202D3B0EE480AE4E7A6EB0804EA
:100FE0009FED118B661B0AE057F825001FF058F89B
:100FF00053EC182B1EF09AFA41EC180B6D1CA5420D
:10100000F2D330461EF012FD41EC100B51EC180BE0
:1010100053EC102B1EF03EFB1EF056FA00EE100AA9
:10102000C1E7000000000000000000000000000018
:1010300010B500203C4B3D4903EB800202F5705295
:1010400092ED000A421C03EB820404F57054D4EDC7
:10105000000A841C03EB840404F5705494ED001A18
:10106000B4EEE00AF1EE10FA09D8F4EEC10AF1EE9E
:1010700010FA04D801EB8000C0ED000A49E0B4EE9C
:10108000C10AF1EE10FA09D8B4EEE01AF1EE10FA46
:1010900004D801EB800080ED001A3AE0F4EEC00ABB
:1010A000F1EE10FA09D8B4EEC10AF1EE10FA04D844
:1010B00001EB800080ED000A2BE0F4EEC10AF1EEB6
:1010C00010FA09D8B4EEC01AF1EE10FA04D801EB08
:1010D000800080ED001A1CE0B4EEC01AF1EE10FAA8
:1010E00009D8B4EEE00AF1EE10FA04D801EB800062
:1010F00080ED000A0DE0B4EEE01AF1EE10FA08D827
:10110000F4EEC00AF1EE10FA03D801EB8000C0ED56
:10111000000A90B2FE288FD391EDFD0A81EDFE0A00
:1011200081EDFF0A10BD0000009808C000E808C06B
:101130003048314A90ED030A417802EB810383ED98
:10114000000A491CC9B24170032901D10021417034
:1011500092ED000AD2ED010AB4EEE00AF1EE10FAC7
:1011600008DB92ED021AF4EEC10AF1EE10FA01DB8F
:10117000C0ED040A92ED021AB4EEC10AF1EE10FAC3
:1011800006DBB4EEE01AF1EE10FA01DB80ED041A92
:10119000F4EEC00AF1EE10FA06DBB4EEC10AF1EE8D
:1011A00010FA01DB80ED040AF4EEC10AF1EE10FA48
:1011B00006DBB4EEC01AF1EE10FA01DB80ED041A82
:1011C000B4EEE01AF1EE10FA06DBF4EEC00AF1EE2E
:1011D00010FA01DBC0ED040AB4EEC01AF1EE10FA09
:1011E00006DBB4EEE00AF1EE10FA01DB80ED040A52
:1011F00070470000240000204C2C002070B52DED1D
:10120000048B434D95ED088A9FED429B05F18004C8
:10121000B5EEC08AF1EE10FA1CDB18EE100A3F4959
:10122000884217DA18EE100A1EF03AFF9FED3C1BB9
:1012300053EC112B1EF04AFC9FED3B1B53EC112B82
:101240001EF074F953EC192B1EF040FCC4E90001A8
:101250000520A871314918EE100A49420844344962
:10126000884217D218EE100A1EF01AFF9FED311BAC
:1012700053EC112B1EF02AFC9FED301B53EC112B6D
:101280001EF054F953EC192B1EF020FCC4E90001A8
:101290000620A87118EE100A2A4901442A48814202
:1012A00017D218EE100A1EF0FBFE9FED281B53EC20
:1012B000112B1EF00BFC9FED271B53EC112B1EF086
:1012C00035F953EC192B1EF001FCC4E9000107208D
:1012D000A87118EE100A2149884216DB18EE100A90
:1012E0001EF0DEFE9FED1E1B53EC112B1EF0EEFBDD
:1012F0009FED1D1B53EC112B1EF018F953EC192B0D
:101300001EF0E4FB03C40820A871BDEC048B70BD83
:101310004000002000000040E17A843F00B8084708
:10132000CBA145B6F3FD0340643BDF4F0D12A6C0D1
:1013300000C409014260E5D022DB0240986E1283AE
:10134000C0BAA9C00084EDB7009F24018FC2F52860
:101350005C8F02403BDF4F8D3788BFC0001B374991
:10136000DBF97E6ABC7403407D3F355EE0B5F8C0B2
:1013700070B52DED048B434D95ED088A9FED429B92
:1013800005F18004B5EEC08AF1EE10FA1CDB18EE10
:10139000100A3F49884217DA18EE100A1EF080FE44
:1013A0009FED3C1B53EC112B1EF090FB9FED3B1B64
:1013B00053EC112B1EF0BAF853EC192B1EF086FBE0
:1013C000C4E900010120A871314918EE100A494210
:1013D00008443449884217D218EE100A1EF060FE05
:1013E0009FED311B53EC112B1EF070FB9FED301B5A
:1013F00053EC112B1EF09AF853EC192B1EF066FBE0
:10140000C4E900010220A87118EE100A2A4901441B
:101410002A48814217D218EE100A1EF041FE9FEDB5
:10142000281B53EC112B1EF051FB9FED271B53EC97
:10143000112B1EF07BF853EC192B1EF047FBC4E96F
:1014400000010320A87118EE100A2149884216DB1A
:1014500018EE100A1EF024FE9FED1E1B53EC112BFC
:101460001EF034FB9FED1D1B53EC112B1EF05EF89C
:1014700053EC192B1EF02AFB03C40420A871BDEC09
:10148000048B70BD40000020000000E0E2361A3FEF
:1014900000B80847333333333333F73F6666666645
:1014A00066D0B7C000C40901AAF1D24D6210F03F66
:1014B000E9263108AC3C5AC00084EDB7009F2401F6
:1014C000D578E9263108F03F8B6CE7FBA9B3814062
:1014D000001B37491283C0CAA145F03F79E9263184
:1014E00058A2C8C000B591B04FF480700990EB20AD
:1014F00003904FF440600A904FF400500690002093
:101500000B904FF040710C910A2108910E900F90B2
:1015100010900290019001AA044803A904F0F6FA81
:1015200010B1012011B000BD0020FBE78434002081
:1015300010B51B4C19482060204604F07EFA08B113
:10154000012010BD1648002100F02CF80120606039
:101550000420A0601020E060000590FAA0F0B0FA2E
:1015600080F0401E20614FF4A06060610020A06107
:10157000E06120620A4804F075FA08B1012010BD4C
:10158000074808F009FD08B1042010BD044808F020
:10159000B5FC08B1042010BD002010BD001000A053
:1015A0008434002070B586B04148016841F00201E2
:1015B0000160006800F0020000903D48203801689A
:1015C00041F002010160016821F002010160384828
:1015D0000838016841F002010160016801F0020170
:1015E0000091016841F002010160016801F002010F
:1015F0000091016841F008010160016801F00801F3
:101600000091016841F008010160016801F00801E2
:101610000091016841F010010160016801F01001C2
:101620000091016841F008010160006800F00800C5
:10163000009040200190022002900120039003209E
:1016400004900A2005901B4E01A9304602F062FA70
:1016500004250195002103910924059401A9304630
:1016600002F058FA68020190059401A9124E304622
:1016700002F050FAA9020191059401A9304602F046
:1016800049FA0195059401A90C4802F043FAE802D1
:101690000190059401A9304602F03CFA00220F2186
:1016A0005C2003F011FB5C2003F001FB06B070BD71
:1016B0003838024000040240000C02400010024092
:1016C0002DE9F843002700970125214C25601026BD
:1016D0006660A560E7604FF6FF782146424601F15B
:1016E000100005F0B0F9012002F01CF80220206083
:1016F0006660A560E760214601F11000424605F0F2
:10170000A2F90320206066600820A060E7602146FF
:1017100001F11000424605F096F94FF40C7000906C
:10172000042121606660A560E060214601F110009F
:10173000424605F088F904F1100040F22B7105F0E3
:1017400069F94FF0204143F2D2000860BDE8F88308
:10175000AC2F002008B51648016841F080510160A7
:10176000006800F08050009004F074F810483030A9
:10177000016841F4004101600F490E480860BFF361
:101780004F8FBFF36F8F72B600204FF0E0210861DA
:1017900048618861BFF34F8F08480168084A01F427
:1017A000E06111430160BFF34F8F00BFFDE7000010
:1017B0004038024007B007B0502800400CED00E070
:1017C0000400FA05FEE7000010B5042828DD154ADC
:1017D000202802D0212823D111E04B780878CC783A
:1017E00040EA03208B781B0443EA0463184310602B
:1017F00008791071487950718879907110E01078EB
:1018000008701088000A48701068000C8870106812
:10181000000EC870107908715079487190798871FC
:10182000002010BD4C0200200020704710B5054973
:101830000022054809F0A0FF0449034809F08EFF83
:10184000002010BDB47A0020D8350020B43A002022
:1018500070B504460D68082D13D120786178E278C0
:101860000844A17811440844217908446179084466
:10187000A1790844C0B2E179814202D1204609F041
:10188000DFF9402D15D100210D4D0C4A2878635CFD
:1018900001EB80169355491CC9B24029F7D3401C6F
:1018A000C0B22870082804D100202870034809F02D
:1018B000C7F9044809F026FF002070BDB49A002043
:1018C00040020020D835002070B50F4E0025D6E923
:1018D0000121914216D002D9C1F5804401E0A2EB6A
:1018E00001040A4822460144094809F045FF084816
:1018F00009F0D8FF30B9B0680119B160B1F5804F77
:1019000000D1B560284670BD40020020B47A0020A6
:10191000D8350020214A30B5136823F00103136045
:101920001F4A1368C3F30B140123A4F54065243D3B
:1019300006D01268C2F30B12A2F54064273C17D1FF
:10194000184A1268A2B9184A14684FF08A45B5EBD4
:10195000045F18D01468C4F30B04A4F58065833DBC
:1019600011D01268C2F30B02A2F58064853C0AD044
:101970000E4A93609368002BFCD110601068884277
:1019800009D0002030BD0A4A13601368002BFCD137
:10199000074A083AF1E7012030BD0000002000E0CE
:1019A00000ED00E0002004E00010005C0030024088
:1019B000084C025870B5314840881EF037F89FED4A
:1019C000301B53EC112B1EF081F81DF07DFD2E4CC9
:1019D000E060FFF7ADFBA0880121322806D8401C4B
:1019E000A08094ED040A84ED050A0EE094ED040A4B
:1019F000DFED260A9FED261A20EE200AD4ED050A17
:101A000000EE810A84ED050AA1700025E07820B37C
:101A1000012821D1D4ED050A9FED1E0A94ED021A8A
:101A2000DFED1D1A20EE800A01EE210A84ED020A84
:101A300030EE600A10EE100A1EF032FB41EC100B83
:101A40001AF0CBFC9FED151B51EC100B53EC112B36
:101A50001EF03AF900D2E57070BDA0780128FBD1E4
:101A600094ED050A84ED020A2078401CC0B2207073
:101A70001028F1D12570E17070BD00002E0100200A
:101A800023DBF97E6ABCB43F240000200AD7A33CC4
:101A900048E17A3F8FC2753DD7A3703F0000000038
:101AA0000000F03F10B59FED210AF0EE400A204CF7
:101AB000DFED201A94ED061A61EE211A1E201E4950
:101AC00000F1570201EB820292ED001A31EE611A29
:101AD00001EE010A401C80B25028F1D31E2001EB18
:101AE000800292ED001A31EE611A41EE010A401CAB
:101AF00080B25028F3D370EE200A9FED101A80EECA
:101B0000810A10EE100A1EF0CBFA41EC100B1AF00D
:101B10006EFC51EC100B1DF0D7FC00EE100ADFED4F
:101B2000080A20EE200A84ED0D0A10BD0000000016
:101B3000400000200000804300DC08C00000C842D4
:101B40000000803B2DE9F05F2DED0A8B9FED54AB3B
:101B5000B0EE4A8AF0EE6A8AB0EE489AF0EE689AE1
:101B6000514E002030721E24504D55F824001EF0B6
:101B700097FA53EC182B1DF0D9FC41EC100BB0EE8A
:101B8000408AF0EE608A04F1570055F820001EF0FC
:101B900087FA53EC192B1DF0C9FC41EC190B641C9E
:101BA000A4B2552CE1D39FED42CB51EC180B53EC72
:101BB0001C2B1DF06FFD41EC1B0B53EC1C2B51EC4F
:101BC000190B1DF067FD41EC1C0B1E249FED3A9B89
:101BD000B0EE4A8AF0EE6A8A53EC192B51EC1B0BDB
:101BE0001DF074FF8B46804653EC192B51EC1C0BF7
:101BF0001DF06CFF8A46814604F158004AEC1A9B9E
:101C000055F820001EF04CFA53EC1A2B1EF05EF92A
:101C100041EC190B04F157004AEC1A9B55F82000CF
:101C20001EF03EFA53EC1A2B1EF050F953EC192B10
:101C30001DF04CFF53EC182B1DF00CFF02D2307A34
:101C4000401C3072671C4BEC1A8B55F827001EF0B5
:101C500027FA53EC1A2B1EF039F941EC190B55F801
:101C600024004BEC1A8B1EF01BFA53EC1A2B1EF0BF
:101C70002DF953EC192B1DF029FFB0EE481AF0EEA8
:101C8000681A53EC112B1DF0E5FE02D2307A401C8D
:101C90003072BCB2552CAFD3BDEC0A8BBDE8F09FBF
:101CA00000000000000000004000002000DC08C030
:101CB0000000000000804B40000000000000E03FFA
:101CC00010B52DED048B144C204694ED079A90ED41
:101CD0001C8BB5EEC09AF1EE10FA09D151EC180B3D
:101CE0009FED0E0B53EC102B1DF0F0FEC4E91E010E
:101CF00019EE100AB0F17E5F09D151EC180B9FED7F
:101D0000090B53EC102B1DF0E1FEC4E91E0184ED1C
:101D10001A8BBDEC048B10BD400000200000006059
:101D200048E03740000000407A6A3F4010B52DED92
:101D3000048B00F063FE00F09BFD124CB6EE009A9F
:101D400094ED0B8AD4ED0C8A38EE680A20EE090A6D
:101D500010EE100A1EF0A4F941EC100B1AF03DFB36
:101D600051EC100B1DF0B0FB606138EE280A20EE3C
:101D7000090A84ED060ABDEC048BBDE81040FFF7AC
:101D800091BE00004000002010B5144C214620797F
:101D900091ED0D0A012805D084ED080A207802286B
:101DA00012D013E00E48B3EE071ADFED0E1AD0ED95
:101DB000000A30EEC11AF7EE000A41EE210A80EE69
:101DC000201A84ED081AE9E7FFF7D2FA20780028F4
:101DD00003D1BDE81040FFF711BA10BD400000204C
:101DE0002C0000200AD7A33C10B5164CA079207215
:101DF0001021154801F084FFA0714021134801F023
:101E00007FFFE0710022A179237A994203D12379DF
:101E10005B1C237100E022712379022B09D122710E
:101E2000012901D1012805D040B1002901D10220AA
:101E3000E07010BD0120E070227010BDE2702270D1
:101E400010BD0000F4000020000402400008024021
:101E500010B52DED028B414C94ED180A84ED190A52
:101E600094ED170A84ED180A94ED080A84ED170A18
:101E7000D4ED0F0AC4ED100AD4ED0E0AC4ED0F0A1A
:101E8000D4ED040A94ED031AB0EE008A70EE810AD4
:101E90009FED331A20EE080A60EE810A80EE801A68
:101EA00084ED0E1A94ED120A84ED130A94ED110AD2
:101EB00084ED120A04F1800090ED000B53EC102B1E
:101EC00094ED1C0B51EC100B1EF000F841EC100BC4
:101ED0001AF083FA51EC100B1DF0F6FA606494EDE1
:101EE000150A84ED160A94ED140A84ED150A00F023
:101EF0001DFC1C49206A884202DD84ED148A03E03F
:101F0000B7EE000A84ED140A0120E071206D002272
:101F10004FF07F53984207DD616D994204DDA16D5A
:101F2000994201DDE27162716179012909D10E499D
:101F3000884206DA606D884203DAA06D884200DAD2
:101F4000E271E079002805D1BDEC028BBDE81040BC
:101F500008F0CEB8BDEC028B10BD000040000020A0
:101F60000000C842001B374A0AD7A33B10B5FFF751
:101F70003BFF3B4C6079401CC0B26071322801D9F4
:101F800008F0D0FE3748008860816089A0F6DE0046
:101F90001DF035FD9FED341B53EC112B1DF096FD0C
:101FA0009FED331B53EC112B1DF074FB9FED321B87
:101FB00053EC112B1DF0BAFA1DF086FA00EE100A50
:101FC00084ED050A2E4832210BF01DFA0A232C4815
:101FD00032211A46FEF7D2FF84ED060AF0EE080A17
:101FE000DFED291A30EE600ADFED260A20EE201A16
:101FF00081EE210A84ED070A10EE100A2349884277
:1020000001DDC4ED070A94ED070A9FED211AB5EE34
:10201000C00AF1EE10FA01D284ED071AD4ED071AC6
:10202000B1EE040A71EE801A81EE802ABDEEC20A7A
:1020300010EE100A00EB800000EE100AB8EEC00AA5
:1020400084ED070AB5EEC00AF1EE10FA01D284ED74
:10205000071AE069884201DDC4ED070A10BD0000DF
:10206000F40000202E010020343333333333F33FA8
:1020700000000000009C90400000000000000840AC
:10208000D82D00200000C8429899993F0000C8420E
:10209000000000000F498878CA78904200D0C870CC
:1020A0000D4890F89C228A7090F89C22032A02D155
:1020B000CA78022A0BD090F89C02032806D1C8786F
:1020C000042803D10020487004490870704701209B
:1020D0004870704740020020D83500205A01002087
:1020E000F0B50022C1F3CF0623E0002100F8321042
:1020F000A1274FF0010C01EBC20303445C781A2CBA
:1021000007D110F832500CFA01F4254300F8325090
:102110005F70491C89B20829EDD310F8321001F024
:10212000F0035B0001F00F01194300F83210521C5C
:1021300092B2B242D9D3F0BD10B50E480C2105F0D1
:1021400049FC0C48082105F0CBFC0A4800219830D6
:1021500005F0B2FA07480421983005F0ADFA0548B9
:102160004C3005F013F80348BDE81040983804F0EF
:10217000C7BF00004833002000F00F01000900EB4A
:10218000800001EB4000704770470000014801F0FB
:102190003DB90000F0310020014801F037B90000DE
:1021A00050320020014800F0F8BF00006C2F0020E2
:1021B000014801F02BB90000E82E00200168CAB2E6
:1021C000103A1823B2FBF3F2064B9B5CC365032A5B
:1021D0006FF3090102D9091D816500E08165806DF9
:1021E00070470000C4030208014610B500208A6A47
:1021F0004FF0C0748B69002B0ED0B3F5005F1AD07E
:1022000062B3012A2AD0022A28D0032A03D1C96A3C
:10221000C90100D5012010BD1AB1012A06D0022A39
:10222000F9D1C96AC901F6D5012010BDC96AA14218
:10223000FBD1012010BD52B1012A0AD0022A06D0DA
:10224000032AF7D1C96AA142F4D1012010BD0120AF
:1022500010BDC96AC901FBD5012010BD012010BD08
:1022600030B50468256825F480252560046863601E
:102270008368402B04D0036899600068C26030BD59
:1022800003689A600068C16030BD704710B50A21CC
:10229000B0FBF1F201FB12036422B0FBF2F402FB8B
:1022A0001402B0FBF1F401FB1400101A90FBF1F0E2
:1022B00000011844C0B210BD04480068400403D5B2
:1022C0004FF4804001F01ABC70470000143C0140FC
:1022D000402001F013BC000010B50021074C002283
:1022E000002004EB812343F82020401C80B2FF280B
:1022F000F9D9491C89B21029F2D310BD001808C0C1
:1023000010B501F0B5FA00F061FA00F09DFA19205D
:10231000104A4FF0FF3140F6C81342F82010401C1D
:102320009842FAD372B600F057FA48B100F070FA4A
:1023300058B162B600F048FA01F04EFA012010BD23
:1023400062B601F049FA002010BD62B601F044FA0D
:10235000002010BD2C05002010B500204FF4FF33E5
:1023600000214200A2F180421180401C9842F8D323
:102370000020044A02EB4004A4F8001C401C9842D0
:10238000F8D310BD00F003C010B50446192C01D3DA
:10239000002010BD01F06CFA00F018FA00F054FAB9
:1023A0006420444340F6C81104F16400884203D914
:1023B00001F012FA002010BD0021104A481E6318D7
:1023C00042F82300491C6429F9D372B600F004FADC
:1023D00048B100F01DFA58B162B600F0F5F901F00D
:1023E000FBF9012010BD62B601F0F6F9002010BD26
:1023F00062B601F0F1F9002010BD00002C050020AC
:10240000704700000022002905D001291CD00229B4
:102410001DD04FF440720F490B6823F440730B60DA
:102420000B6813430B600A6822F0F8020A600A681E
:10243000022303EBC00002430A60086840F48030C6
:102440000860BFF34F8F70474FF48072E3E74FF49B
:102450000072E0E7103C024009490A6822F4407229
:102460000A600A6842F004020A600A684FF4803386
:1024700043EA002002430A60BFF34F8F7047000019
:10248000103C0240074A136823F44073136013683A
:102490001360136843F0010313600170BFF34F8FA3
:1024A00070470000103C024010B50A490C6824F443
:1024B00040740C600C6844F440740C600C6844F088
:1024C00001040C600260BFF36F8F4360BFF34F8F56
:1024D00010BD0000103C0240084A136823F440730A
:1024E0001360136843F480731360136843F00103AF
:1024F00013600180BFF34F8F70470000103C024013
:10250000084A136823F440731360136843F400739C
:102510001360136843F0010313600160BFF34F8F32
:1025200070470000103C02401349086882071348B6
:1025300003D5826942F0200282610A68D20603D57F
:10254000826942F0100282610A68920603D58269AC
:1025500042F0080282610A68520603D5826942F09D
:10256000040282610A68120603D5826942F00202FF
:102570008261F220086070470C3C0240A8AE002047
:1025800070B5044611490020886101F0CFFB054673
:102590000F4E09E0601C07D024B101F0C7FB401BBF
:1025A000A04201D9032070BD3068C003F2D4306866
:1025B00010F0F20F03D0FFF7B7FF012070BD3068B5
:1025C000C00701D001203060002070BDA8AE0020FF
:1025D0000C3C0240F0B50D68D1E90843CA69002DF2
:1025E00018D02243046824F4F84423431A430260B9
:1025F000D1E901231A43D1E9033423431A434B6938
:1026000089691A430A4341686FF30E010A43426025
:102610000020F0BDD1E901563543D1E903673E43BF
:1026200035434E69896935430D4301681543254398
:102630001D436FF30E010D430560E9E7426943F660
:10264000FE739A4342EA4101416100207047D1E99B
:1026500000231A438B68C9685B1E5B0143EA412172
:102660000A4301696FF315010A43026100207047B4
:1026700030B5CB684C695B1E641E002A20D01A035B
:10268000836842EA04521C4C23401A4382604B6820
:102690000A685B1E521E42EA03138A68521E43EA0E
:1026A00002230A8A097E521E491E43EA024242EA76
:1026B0000161C26802F070421143C160002030BD68
:1026C0004D680A686D1E521E42EA05158A68521E40
:1026D00045EA022242EA03330A8A097E521E491E53
:1026E00043EA024242EA045242EA0161826802F08D
:1026F000704211438160E1E7FF0F0FFF70B50023C7
:10270000084C03E0C55CE5545B1C9BB28B42F9D3DB
:1027100005480A46034909F02FF8BDE87040024811
:1027200009F0C0B8B47A0020D835002010B521498E
:102730004A420020204B00EE901A03EB8004F8EE92
:10274000E00A94ED000AB4EEE00AF1EE10FA03DDBF
:10275000FDEEC00A10EE901A00EE902AF8EEE00AA4
:10276000B4EEE00AF1EE10FA03D2BDEEC00A10EEAC
:10277000102A401CFF28DEDB881A00EE100AF6EE55
:10278000000AB8EEC00A20EE200A10EE100A1DF072
:1027900087FC41EC100B19F020FE9FED081B51EC5B
:1027A000100B53EC112B1DF091F91DF0FBF80549AE
:1027B000886210BD806967FF00E808C00000000063
:1027C0000000703F40000020704700007320014966
:1027D000086070470C3C024000B585B04FF0FF30F8
:1027E0000090002001900220049007200290012018
:1027F000039001A8694600F0A7FF10B1002005B0C2
:1028000000BD0098401C01D00020F8E70120F6E749
:102810002DE9F04100240A4D0A4E40F6C81705EB99
:1028200084010023022056F8242000F0DFFF10B1BD
:102830000020BDE8F081641CBC42F0D30120F8E721
:1028400000000C082C05002010B50020064B074A9C
:1028500040F6C81403EB8001096842F82010401CC0
:10286000A042F7D310BD000000000C082C0500208A
:102870002DE9F0412DED048B9FED558B1E24564D17
:1028800055F824001DF00CFC53EC182B1CF04EFEE8
:1028900041EC180B641CA4B2502CF1D39FED4F9B5C
:1028A00051EC180B53EC192B1CF0F4FE41EC180BF7
:1028B0004C4EF069B0F1804F31D1D5ED500A2F4622
:1028C00097ED410A97ED2D1AB0EE002A464970EEB9
:1028D000811A40EE421A11EE900A884208DD60EE3D
:1028E000810A40EE400A80EEA10A86ED090A16E050
:1028F0001E2457F824001DF0D3FB53EC182B1CF0BA
:1029000015FE41EC180B641CA4B2502CF1D353EC0F
:10291000192B51EC180B1CF0BDFE41EC180B1E24BA
:1029200055F8247038461DF0BBFB53EC182B1DF0F6
:10293000CDFA41EC190B38461DF0B2FB53EC182BC5
:102940001DF0C4FA53EC192B1DF0C0F841EC190B23
:10295000F0681DF0A5FB53EC192B1CF0E7FD1CF0F3
:10296000B3FDF060641CA4B2502CD9D3D6ED030A99
:102970009FED1E1A80EE810A10EE100A1DF090FBEA
:1029800041EC100B19F033FD51EC100B1CF09CFDC9
:1029900000EE100ADFED160ABDEEC00AB8EEC00A5E
:1029A00020EE200A86ED030A9FED120B51EC180B66
:1029B00053EC102B1DF08AF81CF0C4FF00EE100A37
:1029C000B8EEC00A86ED0C0ABDEC048BBDE8F081C0
:1029D000000000000000000000DC08C00000000053
:1029E000000049404000002000007A4400004842B6
:1029F0000000803B000000000000703F2DE9F04126
:102A00002DED048B9FED5A8B1E245B4D04F1570076
:102A100055F820001DF044FB53EC182B1CF086FDEC
:102A200041EC180B641CA4B2502CEFD39FED539BC8
:102A300051EC180B53EC192B1CF02CFE41EC180B2D
:102A4000504EF069B0F1804F37D1D5EDA70A2F462F
:102A500097ED980A97ED841AB0EE002A4A4970EE75
:102A6000811A40EE421A11EE900A88420CDD60EEA7
:102A7000810A40EE400A80EEA10A10EE100A1DF015
:102A80000FFB41EC180B18E01E2404F1570057F817
:102A900020001DF005FB53EC182B1CF047FD41EC0A
:102AA000180B641CA4B2502CEFD353EC192B51EC2F
:102AB000180B1CF0EFFD41EC180B1E2404F157001D
:102AC00055F8207038461DF0EBFA53EC182B1DF02A
:102AD000FDF941EC190B38461DF0E2FA53EC182BC6
:102AE0001DF0F4F953EC192B1CF0F0FF41EC190B1D
:102AF00030691DF0D5FA53EC192B1CF017FD1CF0B2
:102B0000E3FC3061641C502CD8DBD6ED040A9FED49
:102B10001F1A80EE810A10EE100A1DF0C1FA41EC76
:102B2000100B19F064FC51EC100B1CF0CDFC00EE06
:102B3000100ADFED170ABDEEC00AB8EEC00A20EE9B
:102B4000200A86ED040A9FED130B51EC180B53EC91
:102B5000102B1CF0BBFF1CF0F5FE00EE100AB8EEC7
:102B6000C00A86ED0B0ABDEC048BBDE8F0810000C5
:102B7000000000000000000000DC08C000000000B1
:102B8000000049404000002000007A440000484214
:102B90000000803B000000000000703F10B50844BA
:102BA00000280BD00649082206F054F904490422F3
:102BB0002046BDE81040103106F04CB910BD0000B1
:102BC0002602002010B50B490020087001220A4897
:102BD000402101F0A4F8094C00224FF400412046A6
:102BE00001F09DF801222046BDE81040110201F0DD
:102BF00096B8000040000020001C02400000024087
:102C000010B50A490220087000220948402101F04D
:102C100086F8084C0122D103204601F080F80022FA
:102C20002046A115BDE8104001F079B84000002011
:102C3000001C02400000024010B50B490120087042
:102C400000220A48402101F06AF8094C00224FF4A2
:102C50000041204601F063F801222046BDE8104003
:102C6000110201F05CB8000040000020001C02408E
:102C700000000240F8B50024009490F83C20012A9E
:102C80001FD0012280F83C2007270A68674DFE0705
:102C9000092A22D9B24220D00368D3F80CC00A3ADC
:102CA00002EB420297402CEA070CC3F80CC00A68FA
:102CB000AA4208D10268D3680F7A43EA0763D36057
:102CC00022E00220F8BD0A3A8B6802EB42029340F0
:102CD0000268D7683B43D36016E00368D3F810C09E
:102CE00002EB420202F01F0297402CEA070CC3F8E5
:102CF00010C00A788B6802EB420202F01F02934078
:102D0000026817693B4313614A681F27072A16D2D6
:102D10000368D3F834C0521E02EB820297402CEABB
:102D2000070CC3F834C00A8893B20A79521E02EB2A
:102D3000820293400268576B3B4353632EE00D2A97
:102D400016D20368D3F830C0D21F02EB820297403C
:102D50002CEA070CC3F830C00A8893B20A79D21F54
:102D600002EB820293400268176B3B43136315E04A
:102D70000368D3F82CC00D3A02EB820297402CEA8C
:102D8000070CC3F82CC00A8893B20A790D3A02EBFB
:102D9000820293400268D76A3B43D362244B0268A5
:102DA0009A4208D10A68B24205D1D3F8042322F42A
:102DB0004002C3F8042302689A420ED10A68122A1C
:102DC0000BD1D3F8042322F40002C3F80423D3F870
:102DD000042342F48002C3F8042302689A4221D1FA
:102DE0000A68AA4201D0112A1CD103F541731A685E
:102DF00022F480021A601A6842F400021A6009681C
:102E0000A9420FD10B490C4A0968B1FBF2F101EB61
:102E100081014900009102E00099491E009100994A
:102E20000029F9D180F83C400020F8BD12000010C4
:102E3000002001409002002040420F007047704780
:102E4000704770B504460026002C03D0206C002586
:102E500010B107E0012070BD204600F01DF8656448
:102E600084F83C50206CC00610D4206C20F48850AC
:102E700040F0020020642046FDF782FE6564206C6D
:102E800020F0020040F00100206400E0012684F8F8
:102E90003C50304670BD000070B586B00646142127
:102EA00001A8FDF73AFC1F493068884237D11E4817
:102EB000016841F480610160006800F48060009066
:102EC00019481438016841F020010160006800F0E1
:102ED000200000904FF4C060019003200290002574
:102EE0000395124801A900F015FE124C104820600D
:102EF0004FF080606060A560E560001420614000D4
:102F000060618000A0614011E06125626562204639
:102F100000F064FB08B1FFF773FAB463A66306B070
:102F200070BD0000002201404438024000140240FD
:102F300028640240E82E0020F8B50446134600221B
:102F40000025009594F83C00012807D0012084F862
:102F50003C0020688668F60702D014E00220F8BD25
:102F6000866846F0010686604148424E0068B0FB24
:102F7000F6F000EB4000009002E00098401E009048
:102F800000980028F9D120688668F60765D0226C81
:102F900040F20166B24342F4807222644068400508
:102FA00005D5206C20F4005040F480502064206C43
:102FB000C00404D5606C20F00600606400E0656425
:102FC00084F83C50A26B2C48D063A26B2B48106451
:102FD000A06B2B4AC2646FF0220022681060206848
:102FE000426842F0806242602068826842F48072E7
:102FF000826025680A46A06B4C35294600F056FBD6
:1030000002462049D1F80403C00607D02068884250
:1030100012D1836813F0405F0AD00DE02068816808
:1030200011F0405F21D1816841F0804181601CE056
:10303000836843F080438360D1F80403C00614D44E
:1030400011492068884210D1816811F0405F0CD18D
:10305000816841F08041816007E0206C40F0100001
:103060002064606C40F0010060641046F8BD000010
:103070009002002040420F00F10A0008750B000882
:103080005F0B00080020014000220140F0B505461A
:1030900000201F23CC071CD001275B1E5C1C05D021
:1030A00003F01F0607FA06F40C42F6D032B1082AE4
:1030B00019D0102A13D0182A0DD00120002807D1CA
:1030C0002B68596129688B6823F0180313438B60C0
:1030D000F0BD0120F2E7072BF0D30120EEE7082B2B
:1030E000ECD30120EAE7102BE8D30120E6E700004B
:1030F00010B50446002C02D0607F10B106E001201C
:1031000010BD00202077204600F032F802206077C2
:10311000207938B1D4E902122046FFF7B7FF48B151
:10312000012010BD2168114848612068816821F0A4
:10313000180181606079A0B1216820690861206868
:103140008168626921F060011143816020688168B3
:10315000A26921F080011143816001206077002085
:1031600010BD21684FF0FF300861E8E7B71DC104CA
:1031700008B500680649884208D10648016841F44C
:1031800080510160006800F48050009008BD00008C
:10319000003002403038024070472DE9F0470446C5
:1031A0002068456806684FF004094FF000074FF0AB
:1031B0000108E90714D0F10512D5016821F48071E6
:1031C0000160E06B40F00100E0632068C0F8088017
:1031D00084F8399084F83870616909B120468847CD
:1031E000A80615D5B00413D52068016821F4005154
:1031F0000160216820208860E06B40F00200E063FD
:1032000084F8399084F83870616909B1204688479C
:10321000280715D5300513D52068016821F4006111
:103220000160216808208860E06B40F00400E063E2
:1032300084F8399084F83870616909B1204688476C
:1032400068070CD570050AD52068016821F48061F3
:1032500001602068C0F80890204600F05BF8A807DD
:1032600013D5B00511D52068016821F40071016003
:10327000216802208860E06BE06384F8398084F87C
:103280003870216909B120468847E80612D5F00454
:1032900010D52068016821F4805101602168102058
:1032A0008860E06BE06384F8398084F838702046E9
:1032B000FFF772FFBDE8F08770B50446002C04D01C
:1032C00094F83900002510B106E0012070BD84F8A3
:1032D0003850204600F020F8022084F83900206899
:1032E0000168626821F44031114301602068416B3C
:1032F000A26821F00701114341632068016CE26874
:103300006FF30D0111430164E563012084F8390076
:10331000002070BD7047000008B500680B49884266
:1033200012D10B48016841F400010160006800F40B
:103330000000009000220F215A2001F0C5FCBDE8DA
:1033400008405A2001F0B3BC08BD000000B00240A4
:10335000303802402DE9F0410446A76D00F0E6FC4C
:10336000054694F835000026022806D080206065C6
:1033700084F834600120BDE8F0812068016821F004
:10338000160101602068416921F080014161206CD3
:1033900008B9A06C20B12068016821F00801016023
:1033A0002068016821F0010101600BE000F0BEFC23
:1033B000401B052806D92020343420620320607089
:1033C0002670D8E720680068C007EFD134343F206A
:1033D00094F828108840B8600120607026700020A2
:1033E000C9E790F83510022903D0802141650120FA
:1033F0007047052180F835100068016821F001014F
:1034000001600020704790F8350070472DE9F843BF
:1034100004464FF00009CDF800904FF416516E4865
:103420000068B0FBF1F7A56D2E68082294F85C00E7
:1034300002FA00F1314210D02068016849070CD52A
:10344000016821F00401016094F85C0002FA00F1C7
:10345000A960606D40F00100606594F85C104FF069
:10346000010808FA01F0304208D0216849690906CC
:1034700004D5A860606D40F00200606594F85C10AF
:1034800004208840304208D021680968890704D5A3
:10349000A860606D40F00400606594F85C10102036
:1034A0008840304220D02168096809071CD5A860EF
:1034B0002068016849030CD50068000304D4216C1E
:1034C00091B1204688470FE0A16C69B1204688473A
:1034D0000AE00168C90503D4016821F00801016010
:1034E000216C09B12046884794F85C102020884060
:1034F00030424CD021680968C90648D5A86094F8C4
:10350000350005280BD020680168490330D50068D4
:10351000000328D4616C51B32046884737E0206807
:10352000016821F0160101602068416921F08001E5
:103530004161206C08B9A06C20B12068016821F0BD
:103540000801016094F85C103F208840A86084F86E
:10355000358084F83490216D00293BD001B020469D
:10356000BDE8F0430847E16B09B1204688470EE00B
:103570000168C90507D4016821F01001016084F8D1
:10358000358084F83490E16B09B120468847606D3E
:1035900000281FD0606DC00714D0052084F83500C6
:1035A0002068016821F0010101600098401C009032
:1035B000B84203D820680068C007F6D184F8358087
:1035C00084F83490E16C002904D001B02046BDE8B5
:1035D000F0430847BDE8F8839002002070B5044628
:1035E00000F0A4FB05465CB1022084F835000026FB
:1035F00084F834602068016821F0010101600CE06A
:10360000012070BD00F092FB401B052805D9202049
:103610006065032084F8350070BD20680068C0072D
:10362000F0D121680A6820480240D4E90103184318
:10363000D4E903352B43184363691843A36918433E
:10364000E3691843236A18431043626A042A03D1CA
:10365000D4E90B231A43104308602068406920F026
:103660000701606A40EA010504280DD1A06A0543FC
:10367000E06A48B12046FEF7B7FD28B140206065FA
:1036800084F83560012070BD206845612046FEF752
:1036900095FD94F85C203F21914081606665012092
:1036A00084F83500002070BD3F8010F02DE9F04116
:1036B00004460025A66D94F8340001280DD00120A1
:1036C00084F8340094F835700020012F07D084F876
:1036D000340002252846BDE8F0810220FBE70227DE
:1036E00084F8357060652046FEF7BAFD94F85C10EA
:1036F0003F208840B0602068016841F016010160F9
:103700002068416941F080014161206C20B120684E
:10371000016841F0080101602068016841F0010181
:103720000160D7E770B5044600F000FB0546601C59
:1037300002D004480078044400F0F8FA401BA0428C
:10374000FAD370BD840200202DE9F04704460E46EE
:10375000DFF87C8098F81400012809D0012088F84F
:1037600014004CF250394846FEF70AFF18B12AE01F
:103770000220BDE8F0874FF0FF3131602168154F1E
:10378000012901D0656819E0207BFEF765FE4846F7
:10379000FEF7F6FE396821F00401396013E0217B61
:1037A0002846FEF72FFE4846FEF7EAFE396821F06C
:1037B0007A01396008B1356005E06D1CD4E901215A
:1037C0001144A942EBD8002188F81410D1E7000079
:1037D000A8AE0020103C02400348016841F00041BF
:1037E0000160002070470000103C02402DE9F047C6
:1037F0000646894614461D461B4F387D012808D0D1
:10380000012038754CF250384046FEF7B9FE18B129
:1038100026E00220BDE8F08736B1012E09D0022E45
:103820000CD0032E14D10EE04846E1B2FEF72AFE7A
:103830000EE0A1B24846FEF74FFE09E02146484699
:10384000FEF75EFE04E022462B464846FEF72CFEBD
:103850004046FEF795FE05490A6822F001020A601B
:1038600000213975D6E70000A8AE0020103C0240C8
:10387000002007490A68002A09DA054A054B0C3A74
:103880001360054B13600968002900DA01207047B6
:10389000103C024023016745AB89EFCDF0B587B0FE
:1038A000142102A8FCF739FF2A48016800294ED1EB
:1038B000012101602848016841F0010101600068B0
:1038C00000F0010001904FF68370029002240394EF
:1038D00000250495032605960C2706971F4802A984
:1038E00000F018F948F233100290039404950596FD
:1038F000069702A91A4800F00DF94CF203700290E5
:10390000039404950596069702A9164800F002F95B
:103910004FF63F000290039404950596069702A97E
:10392000114800F0F7F828200290039404950596BA
:10393000069702A90D4800F0EDF8082002900394C4
:1039400004950596069702A9094800F0E3F807B028
:10395000F0BD000034010020383802400010024061
:1039600000180240000C024000140240001C0240FB
:10397000000802402DE9F04F0023DFF828914FF0B6
:1039800001084FF00F0C08FA03F501EA0504AC42F8
:103990007ED123F0030202EB0906D6F808289F0720
:1039A0004FEA177A0CFA0AF707EA020B3E4A9042EE
:1039B00001D100222DE03D4A904201D1012228E0B0
:1039C0003B4A904201D1022223E03A4A904201D17F
:1039D00003221EE0384A904201D1042219E0374AFE
:1039E000904201D1052214E0354A904201D10622CD
:1039F0000FE0344A904201D107220AE0324A904255
:103A000001D1082205E0314A904201D1092200E0AB
:103A10000A2202FA0AF25A4522D1DFF8B4A0DAF8F3
:103A20000020A243CAF800200AF1040ADAF80020B4
:103A3000A243CAF80020DFF898A00AF10C0ADAF8CD
:103A40000020A243CAF80020AAF1040ADAF80020F4
:103A5000A243CAF80020D6F80828BA43C6F80828B6
:103A600004685E000322B24094430460DC0800EB6B
:103A70008404276A5E074FEAD66A0CFA0AF6B7434F
:103A80002762C4689443C4604468AC43446000E067
:103A900002E08468944384605B1C102BFFF473AFD6
:103AA000BDE8F08F003001400000024000040240F9
:103AB00000080240000C02400010024000140240C6
:103AC00000180240001C0240002002400024024076
:103AD000003C014010B50446B4F5804F01D107F019
:103AE00071F9402C06D100220348BDE81040802126
:103AF00000F015B910BD00000014024010B50449D3
:103B00000A68024202D00860FFF7E4FF10BD00001F
:103B1000143C01402DE9F84F0022DFF8B091032753
:103B20004FF0010809F1040A4FF00F0CA9F1040B42
:103B300008FA02F50B682B40AB426ED10C7904F009
:103B40000304012C01D0022C15D18668540007FA19
:103B500004FE26EA0E06D1F80CE00EFA04FE4EEA48
:103B6000060EC0F808E04468AC430D79C5F30015B3
:103B70009540254345600C79E443A40708D0C56807
:103B8000540007FA04F6B5438E68A6402E43C6607B
:103B90000C7904F00304022C11D1D40800EB840644
:103BA000356A5407E40E0CFA04FE25EA0E05D1F836
:103BB00010E00EFA04FE4EEA050EC6F820E0056895
:103BC000540007FA04F6B5430E7906F00306A64042
:103BD0002E4306604C6814F4403F71D03C4C25687D
:103BE00045F480452560246804F480440094394CF1
:103BF00022F003052E19D6F8085894074FEA147ED0
:103C00000CFA0EF4A543344CA04201D100242EE05E
:103C1000324CA04202D1012429E051E0304CA042B4
:103C200001D1022423E02F4CA04201D103241EE045
:103C30002D4CA04201D1042419E02C4CA04201D10A
:103C4000052414E02A4CA04201D106240FE0294C9F
:103C5000A04201D107240AE0274CA04201D1082448
:103C600005E0264CA04201D1092400E00A2404FA10
:103C70000EF42C43C6F80848D9F800409C434D6820
:103C8000ED0200D51C43C9F80040DAF800409C431F
:103C90004D68AD0200D51C43CAF80040DBF8004077
:103CA0009C434D68AD0300D51C43CBF80040074D45
:103CB000083D2C689C434E68F60300D51C432C60DD
:103CC000521C102AFFF434AFBDE8F88F083C0140C5
:103CD000443802400030014000000240000402402D
:103CE00000080240000C0240001002400014024094
:103CF00000180240001C0240002002400024024044
:103D00000069084201D001207047002070474269D5
:103D100021EA02030A4043EA024181617047002A16
:103D200001D0816170470904816170470148806852
:103D3000704700008402002090F84120202A01D022
:103D40000220704790F84020012A20D0012280F8FC
:103D50004020242280F841200268136823F00103E8
:103D600013600268136823F48053136002681368B9
:103D70000B43136001680A6842F001020A602021C7
:103D800080F84110002180F8401000207047022088
:103D9000704790F84120202A01D00220704790F807
:103DA0004020012A1ED0012280F84020242280F8E1
:103DB00041200268136823F001031360026813684E
:103DC00023F4706343EA0121116001680A6842F03C
:103DD00001020A60202180F84110002180F8401083
:103DE00000207047022070477047704710B50446A6
:103DF000002C12D0242084F841002068016821F0B2
:103E000001010160204600F0C1FB002030346061F8
:103E100060742060A074207410BD012010BD30B407
:103E2000026893691168DB43DC0509D4CC4324069E
:103E300006D4446C44F0010444644FF48074D461AB
:103E40005A050AD4CA43120607D4426C42F008024B
:103E5000426404684FF48062E2619A050AD4C9435F
:103E6000090607D4416C41F00201416402684FF435
:103E70000071D161416C11F00B0F02D030BC03F026
:103E8000FBBF30BC7047026891691268436B002B1E
:103E900000D018477047704770B50446002C04D016
:103EA00094F84100002510B106E0012070BD84F8AF
:103EB0004050204600F0A4FB242084F841002068F4
:103EC000016821F0010101602168606820F07060E4
:103ED00008612068816821F400418160E068012860
:103EE00031D02168A06840F404408860E06802286E
:103EF0002FD02068416821F400614160206841684A
:103F0000174A114341602068C16821F40041C16033
:103F1000D4E904010843A16940EA01202168C8608E
:103F2000D4E907010843216808602068016841F06E
:103F3000010101606564202084F84100256384F854
:103F40004250002070BD2168A06840F400408860A5
:103F5000CCE72068416841F400614160CEE7000091
:103F6000008000022DE9FC5F044692461D464FF09A
:103F7000000BCDF804B0002794F84100202802D0AF
:103F80000220BDE8FC9F20688069C043000401D482
:103F90000220F6E794F84000012820D0012084F8A0
:103FA0004000242084F84100C4F844B04FF02009B8
:103FB000C1F30908E068012813D03D4848EA000031
:103FC00020F4806021684860FFF7B0FE0646206854
:103FD0008169C1F340118069C0F3001016E002202E
:103FE000CFE7344848EA000020F48060EAE7681C24
:103FF00005D0FFF79BFE801BA8421BD8D5B12068D7
:104000008169C1F340118069C0F300100143EED013
:1040100020688169C943C90625D500222B46202185
:104020002046009604F021FEA0B1606C04280BD05D
:10403000012727E084F84190606C40F02000606424
:1040400084F840B001209CE72068C0F81C90C4F8B8
:1040500044B017E02068C0F81C9084F8419084F8C0
:1040600040B000208DE71021C16100222B462021A5
:104070002046009604F0F9FD08B1012702E020680F
:10408000C0F81C900198401C01900198504502D244
:10409000012F00D10027019850458BD384F841901F
:1040A000606C40F02000606484F840B0012068E754
:1040B00000280002002000027047000010B50068D0
:1040C000184988422CD1184A10787F280ED91649F1
:1040D000002208310A7000F07F0048700223BDE81A
:1040E000104012480A46D02100F078B89078FEF7C8
:1040F00043F80D4B9B1F98705078FEF73DF85870B1
:104100001078FEF739F818709079FEF735F8587185
:104110005079FEF731F818711079FEF72DF8D87044
:1041200010BD00000054004042010020F02F00208C
:1041300000680549884205D10823044A0448D02173
:1041400000F008B870470000005400404201002011
:10415000F02F002038B5044694F84100202801D003
:10416000022038BD20688069C043000401D40220C9
:1041700038BD94F84000012815D001202434207760
:10418000222565771025A577002525622260E3802A
:104190000F4AA2600F4A2261E288243CFF2A04D918
:1041A0002085030605E0022038BD608D20854FF094
:1041B000007309480090204694F8282004F028FD58
:1041C00084F840500221204603F0B0FD002038BDA5
:1041D0000000FFFFE585000800240080F8B50446D4
:1041E00094F84100202801D00220F8BD206885699C
:1041F000ED432D0401D40220F8BD94F84050012D68
:1042000017D0012524342577212565771025A5773A
:10421000002525622260E3801A4BA3601A4B2361BC
:10422000E388243CFF2B06D9FF2323854FF08073BE
:1042300005E00220F8BD638D23854FF00073278DC4
:10424000124E8FB112788262606A401C6062608D8B
:10425000401E6085208D401E2085401C0096C2B205
:10426000204604F0D5FC04E000222046009604F02D
:10427000CFFC84F840500121204603F057FD002078
:10428000F8BD00000000FFFFE58500080020008069
:10429000704770472DE9FF4F83B004469346DDE930
:1042A000109ADDF8488094F84100202803D00220BD
:1042B00007B0BDE8F08FB9F1000F16D0BAF1000FCA
:1042C00013D094F84000012814D0012784F84070DE
:1042D000FFF72CFD05462046012200951923D10346
:1042E00004F0C3FC40B10120E2E74FF400706064C9
:1042F0000120DDE70220DBE7222084F84100402096
:1043000084F8420000266664C4F82490A4F82AA029
:1043100066635A46CDE90085069B2046049904F061
:10432000EDFA18B184F840600120C1E7618D4FF0CB
:10433000807937484FF0007AFF2908D93A46278517
:1043400004994B460090204604F062FC09E0618D20
:10435000218553460090204694F82820049904F0C3
:1043600057FC0022434604212046009504F07DFCC2
:1043700008B101209CE72068406A616A0870606AA1
:10438000401C6062208D401E80B22085618D491ED8
:104390006185618D01B3F8B9002243468021204632
:1043A000009504F062FC08B1012081E7608DFF28D0
:1043B00008D93A46278504994B462046009604F0D2
:1043C00027FC09E0608D208553460096204694F82E
:1043D0002820049904F01CFC608D0028C1D12A46D5
:1043E0004146204604F07EFC08B1012060E72068C9
:1043F0002021C16120684268064B1A40426084F85F
:10440000411084F8426084F84060002050E70000CA
:104410000024008000E800FE2DE9FF4F83B0044631
:1044200092469B46DDE91198109F94F841002028A0
:1044300003D0022007B0BDE8F08FB7B1B9F1000F8B
:1044400013D094F84000012814D0012084F84000D3
:10445000FFF76CFC06462046012200961923D10383
:1044600004F003FC40B10120E4E74FF40070606405
:104470000120DFE70220DDE7212084F84100402011
:1044800084F84200002565646762A4F82A90656399
:104490005B4604995246CDE90086204604F068FA4E
:1044A00018B184F840500120C4E7608DFF274FF019
:1044B0008079FF284FF0007A08D93A462785049979
:1044C0004B462046009504F0A3FB09E0608D208553
:1044D00053460095204694F82820049904F098FB50
:1044E00032464146204604F028FC08B10120A1E7ED
:1044F000606A216800788862606A401C6062608D32
:10450000401E6085208D401E80B22085618D01B3E4
:10451000F8B90022434680212046009604F0A5FB0E
:1045200008B1012086E7608DFF2808D93A46278523
:1045300004994B462046009504F06AFB09E0608D23
:10454000208553460095204694F82820049904F0CD
:104550005FFB608D0028C3D132464146204604F0FF
:10456000C1FB08B1012065E720682021C1612068F6
:104570004268054B1A40426084F8411084F842506A
:1045800084F84050002055E700E800FE70B5174958
:104590000068174A8C15884214D1106820F4001066
:1045A00010602146134C2046FFF7E4F961152046C0
:1045B000FFF7E0F91F2000F069FBBDE87040202004
:1045C00000F064BB0C4988420ED1106820F4000052
:1045D00010600A4D80212846FFF7CCF92146284675
:1045E000BDE87040FFF7C6B970BD00000054004040
:1045F0004038024000040240005C0040001C0240C1
:104600002DE9F043A7B00446142122A8FCF785F851
:10461000842101A8FCF781F820681227384C002675
:1046200036494FF00108364D103488424FF00409E6
:1046300038D1001401901A9601A801F017FC08B1B6
:10464000FDF7DEFE286840F002002860286800F0D0
:10465000020000904FF4407022902397CDF8908094
:104660002596CDF8989022A92648FFF753FA20689E
:1046700040F400102060206800F400100090002238
:104680000C211F2000F020FB1F2000F010FB002257
:104690000C21202000F018FB202000F008FB27B0A0
:1046A000BDE8F08318498842F9D14FF48030019079
:1046B0001C9601A801F0DAFB08B1FDF7A1FE2868FD
:1046C00040F080002860286800F0800000904FF4DF
:1046D000C07022902397CDF8908003202590CDF8CC
:1046E000989022A90948FFF715FA206840F40000C5
:1046F0002060206800F400000090D0E700540040E3
:104700003038024000040240005C0040001C0240BF
:104710007047704702488168027811448160704791
:104720008402002010B50748016841F480710160DF
:10473000032000F0E9FA0F2000F006F800F06EFA0E
:10474000002010BD003C024030B587B005461C4833
:10475000016841F480210160006800F4802000902D
:1047600001A902A801F0AAFE01F0CCFE4000154903
:10477000B0FBF1F1491E1548134A026040F2E732DE
:10478000C2604160002202618260826102F014FC1A
:10479000044694B90D4802F0F9FC04466CB91A209D
:1047A00000F085FA102D07D2002229461A2000F0C9
:1047B0008BFA0748056000E0012407B0204630BDB1
:1047C0004438024040420F00004801402C34002091
:1047D000880200202DE9F04104460F46154694F862
:1047E000A00001281ED0012684F8A060022084F8D1
:1047F000A10005EB8500394600EBC500342204EB2F
:1048000080003830FBF74FFF2A463946204604F037
:104810004BFB2068466284F8A160002084F8A00069
:10482000BDE8F0810220FBE770472DE9F041044626
:104830002068856B466B4FF004084FF0000769074E
:1048400015D5710713D5416B21F004014163206830
:10485000C0F83C80D4F8A40040F00100C4F8A400E3
:1048600084F8A18084F8A0702046FFF7DDFFA80738
:1048700016D5B00714D52068416B21F002014163C1
:1048800021680220C863D4F8A40040F00200C4F8F4
:10489000A40084F8A18084F8A0702046FFF7C4FF2C
:1048A00005EA06004FF00108C0070ED02068416BF2
:1048B00021F0010141632068C0F83C8084F8A180A8
:1048C00084F8A070204600F075F8280710D530074E
:1048D0000ED52068416B21F0080141632168082052
:1048E000C86384F8A18084F8A070204600F04AF9DB
:1048F000BDE8F08170B50446002C04D094F8A10006
:10490000002510B106E0012070BD84F8A0502046BB
:1049100000F07CF8022084F8A1002068816921F071
:1049200070418161D4E901100143D4E903021043CD
:1049300001432068826911438161A08A0004A16952
:10494000014320688160A08B0004216A0143206834
:10495000C160A08C0004A16A014320680161A08DA0
:104960000004216B01432068416194F83500020284
:1049700094F8360001042068C36A03F07F43C362E1
:104980002068C36A114394F8346033430B43C36215
:104990002068416B41F0060141632068816941F064
:1049A00001018161C4F8A450012084F8A100002015
:1049B00070BD000010B512490B68124A124C1188E4
:1049C0008B4211D1518800F0BBF8206810F8661FA7
:1049D000491C01700CF03EFC20680FF0FFFFBDE8A1
:1049E0001040002011F057B800F0AAF8002011F094
:1049F00053F820680168C969BDE810400847000005
:104A00004068014074020020F0040020F0B5A7B017
:104A10000446142122A8FBF780FE842101A8FBF79D
:104A20007CFE4149206888427BD1082001906420A7
:104A30000690052008900224079403260996012079
:104A40000B9000250C9501A801F010FA08B1FDF7B4
:104A5000D7FC3648016841F080610160006800F0D1
:104A60008060009031481438016841F48061016031
:104A7000016801F480610091016841F0400101602A
:104A8000016801F040010091016841F4807101600A
:104A9000016801F480710091016841F400710160C6
:104AA000006800F400700090F72022902394249571
:104AB00025960E27269722A91D48FFF72BF84FF4BD
:104AC000805022902394249525960920269022A98F
:104AD0001848FFF71FF84FF48C4022902394249538
:104AE0002596269722A91448FFF714F848F67C600B
:104AF0002290239424952596269722A90F48FFF704
:104B000009F800220F21582000F0DEF8582000F0AC
:104B1000CEF800220F21592000F0D6F8592000F0DD
:104B2000C6F827B0F0BD00000068014044380240DC
:104B300000280240001802400020024000240240E9
:104B400010B590F8A020012A17D0012300F8A03F4B
:104B50000222427050F8A02C546B24F001045463DC
:104B6000074A116050F8A01C4A6B42F001024A63E8
:104B7000437000210170002010BD022010BD000014
:104B80004068014070470000134A417811601249A3
:104B900008310A6822F001020A600B1F42681A609D
:104BA000027BC37A120742EA0362837A42EAC34273
:104BB000437B42EA8342837B42EA4342C37B42EA2D
:104BC0000342437A42EA0322037A007842EA43022C
:104BD00002430A607047000098ED00E0BFF35F8F6A
:104BE0000448016821F480310160024900207031DD
:104BF0000860704724ED00E0074940F001000860BC
:104C000005487038016841F480310160BFF34F8F6F
:104C1000BFF36F8F7047000094ED00E008B51A48AD
:104C2000016841F080510160006800F08050009000
:104C30001548001D016841F480410160006800F4DE
:104C40008040009000220A216FF00B0000F03CF839
:104C50000A210022C84300F037F80A210022484206
:104C600000F032F801210022881F00F02DF8002208
:104C70000A21101F00F028F800220F21BDE808408B
:104C8000901E00F021B800004038024000280DDBE3
:104C9000012100F01F0291404009800000F1E02056
:104CA000C0F88011BFF34F8FBFF36F8F704700289C
:104CB00009DB012100F01F0291404009800000F152
:104CC000E020C0F800117047F0B40D460D4B1B6892
:104CD000C3F30223C3F10704042C00D90424191DD3
:104CE000072901D2002300E0DB1E012606FA04F1A9
:104CF000491E294099409E40761E16403143F0BC23
:104D000017F03EBB0CED00E000F00701054A10680B
:104D10004FF6FF03184040EA0120034908431060A2
:104D2000704700000CED00E00000FA050168012268
:104D3000C0F8D824002280F8CC24886940F00060B4
:104D40008861486D024A10434865002070470000A2
:104D50000300001070B50446164D002914D0012937
:104D600011D12068D0F8001E41F00101C0F8001EEA
:104D7000D4F8DC0407F06EFAE07A002803D0286843
:104D800040F00600286070BDE07A28B106F040F8D7
:104D9000286820F0060028602068D0F8001E21F066
:104DA0000101C0F8001ED4F8DC04BDE8704007F033
:104DB000ECB9000010ED00E000684162002070478F
:104DC00070B50368586A002907D09C6A00EB144448
:104DD0000020491E4FF482750AE040EA02409862C2
:104DE0000DE005EB80069E5904EB1644401CC0B252
:104DF0008842F6D305EB810144EA02405850002076
:104E000070BDD0F8DC0407F0FBB801EBC10200EB89
:104E10008202D0F8DC04126A07F019B801EBC10273
:104E200000EB8202D0F8DC04D2F8602207F080B8F0
:104E3000D0F8DC0407F0E6B80A0601F00F0101EB38
:104E4000C10100EB810101D5143101E001F51571BB
:104E5000006808F039B870B504464FF0010201F05F
:104E60000F004FF000050B0600EBC00104EB8101C1
:104E700002D514314A7002E001F515714D700870C9
:104E800094F89404012808D084F89424206807F04A
:104E900033FD84F89454002070BD022070BD70B5BD
:104EA000044601F00F002279904201D9012070BD23
:104EB0000B064FF0010201F00F014FF0000501EB6E
:104EC000C10104EB810102D514314A7002E001F501
:104ED00015714D708D70087094F89404012808D0F5
:104EE00084F89424206807F06DFE84F89454002020
:104EF00070BD022070BD01F00F0101EBC10100EB9C
:104F00008100D0F8680270472DE9F04104464FF067
:104F1000010601F00F004FF000050F0600EBC00185
:104F200004EB810102D514314E7002E001F51571D8
:104F30004D700870C2F30A028A600B714A7802B1A0
:104F40004883022B00D14D7194F89404012809D0B4
:104F500084F89464206807F019FC284684F8945477
:104F6000BDE8F0810220FBE710B501F00F0404EB6F
:104F7000C40100EB810101F51571CA600B610023CA
:104F80004B614B700C708379012B00D1CA6182791F
:104F9000006807F06FFE002010BD70B504460D4696
:104FA00005F00F002179884201D9012070BD290642
:104FB0004FF000064FF0010206D500EBC00104EBF4
:104FC000810114314A7006E005EBC50104EB810153
:104FD00001F515714E708A70087094F894040128D8
:104FE00007D084F89424206807F018FE280702D020
:104FF00007E0022070BDA17904F29C42206807F00E
:10500000B7FD84F89464002070BD10B501F00F0462
:1050100004EBC40100EB81011431CA600B61002371
:105020004B6101234B700C708379012B00D1CA6155
:105030008279006807F01EFE002010BD2DE9F84FB0
:1050400004462568284607F0E9FF00287ED120683D
:1050500008F010F8002879D0D5F80808C0F30D2022
:10506000C4F8D404206808F005F8800704D5206847
:10507000416901F002014161206807F0FBFFC106B0
:1050800004F29C40009035D52068816921F0100120
:1050900081612F6A07F00F0000EBC00004EB80066F
:1050A00006F51576C7F34340022802D0062812D031
:1050B0001BE047F6F070074217D0C7F30A12F168F9
:1050C0001746284607F0DAFFF0683844F060706948
:1050D0003844706109E000990822284607F0CEFFA5
:1050E0007069C7F30A11084470612068816941F052
:1050F00010018161206807F0BDFF00034FF0080B2D
:105100004FF000094FF001085ED50026206807F037
:1051100090FF824655E05FEACA704FD02068F1B236
:1051200007F0A0FF0746F80707D005EB4610C0F8C8
:10513000088B3146204604F001FD380709D505EB00
:105140004610C0F808BB3146204600E015E204F0E6
:10515000D1FCF80604D505EB46111020C1F8080B68
:10516000B8071CD56869000605D5D5F8040840F4D1
:105170008061C5F8041806EBC60004EB800000F55A
:105180001570C178012905D180F803902046F1B24D
:1051900000F0F9F905EB46110220C1F8080BB8063A
:1051A00004D505EB46102021C0F8081BB80405D52E
:1051B00005EB46104FF40051C0F8081B761C4FEA6F
:1051C0005A0ABAF1000FA6D1206807F053FF400336
:1051D0006CD5206807F026FF8246002663E05FEA70
:1051E000CA705DD02068F1B207F02AFF0746F807C1
:1051F00023D006F00F0108FA01F0D5F834188143E6
:10520000C5F8341805EB4610C0F80889A0790128C4
:105210000FD106EBC60004EB8000D0E90721114452
:10522000016236B9606A20B920680121009A07F04E
:105230009FFC2046F1B2FFF7E8FD380703D505EBE8
:105240004610C0F808B9F80604D505EB4611102041
:10525000C1F80809780604D505EB46104021C0F8CE
:105260000819B80716D53146284607F0A5FE06EB03
:10527000C60004EB80001430C178012905D180F804
:1052800003902046F1B200F07AF905EB46110220B6
:10529000C1F80809380603D53146204604F0C0FCA1
:1052A000761C4FEA5A0ABAF1000F98D1206807F02D
:1052B000E1FE002811DAD5F8040820F00101C5F854
:1052C000041894F8CC04012839D0204600F03BFAA9
:1052D0002068416901F000414161206807F0CAFE81
:1052E00000050BD5D5F80808C00702D0204600F00D
:1052F00061FA2068416901F400614161206807F0AA
:10530000B9FE00010AD52068416901F000614161E0
:1053100094F8CC04D0B1204600F04CFA206807F095
:10532000A9FEC0046ED5D5F8040820F00101C5F827
:1053300004182068102107F03FFE00212DE084F8BA
:10534000CC9400212046FFF705FDC1E784F8CC840A
:105350002068406DC0F38300C4F8D00401212046CA
:10536000FFF7F8FCDAE705EB41104FF67F3200F566
:1053700010608260036823F400130360C0F8082201
:10538000D0F8002222F40012C0F80022D0F8002247
:1053900042F00062C0F80022491C20798842E2D81D
:1053A000D5F81C0840F00111C5F81C18E07B60B16D
:1053B000D5F8840840F00B01C5F88418D5F84408E6
:1053C00040F00B01C5F844180CE0D5F8140842F27F
:1053D0002B010843C5F81408D5F8100840F00B015C
:1053E000C5F81018D5F8000820F4FE61C5F80018BB
:1053F000A1792068009A07F0BBFB2068416901F49D
:1054000080514161206807F035FE800415D5206881
:1054100007F0FEF9206807F0F1FDE07101F06CF88B
:10542000E2790146206807F08FFE204600F074F90B
:105430002068416901F400514161206807F01AFEBB
:10544000000707D5204600F082F92068416901F085
:1054500008014161206807F00DFE000615D5A86916
:1054600020F08001A96101260CE006EBC60004EBE8
:10547000800090F85702012803D12046F1B2FFF7CF
:10548000DBFC761C2079B042EFD8206807F0F2FDF3
:10549000C0021FD5012615E005EB4610D0F8001913
:1054A00006EBC60004EB8000027E012A09D1002928
:1054B00007DA80F81780F0B240F080012046FFF74D
:1054C000BBFC761C2079B042E6D82068416901F423
:1054D00080114161206807F0CDFD800230D50120A8
:1054E00026E005EB4011D1F8001B00EBC00204EBF5
:1054F000820292F85832012B19D1002917DA94F858
:10550000D434C1F3004103F001038B420FD182F880
:105510005782A96941F08002AA616969090606D427
:10552000D5F8040840F40070C5F8040803E0401CF6
:1055300021798142D5D82068416901F40011416187
:10554000206807F097FD400007D52046FFF759FC7B
:105550002068416901F080414161206807F08AFDBF
:1055600040070AD520684568680702D52046FFF73E
:105570005FFC2068416829434160BDE8F88FD0F89E
:10558000DC0406F092BDD0F8DC0406F0A3BDF8B54B
:105590000446002C05D0266894F89504002510B127
:1055A00006E00120F8BD84F89454204600F060F82D
:1055B000032084F89504B6F1A04F00D1A5712068AE
:1055C00007F0D0FA207C8DF8000094E80F0007F077
:1055D0002DF9022618B184F895640120F8BD2068E1
:1055E000002107F06AFD18B184F895640120F8BD28
:1055F000002101270CE001EBC10004EB800047759E
:105600000175C1850576C56105624562491CC9B24F
:1056100020798842EFD800210DE001EBC10004EBB6
:10562000800000F515704570017005718560C560DA
:105630000561491CC9B220798842EED8207C8DF8DA
:10564000000094E80F0007F0D7F918B184F89564CA
:105650000120F8BD657484F89574207B012802D17F
:105660002046FFF763FB206807F0B8F90020F8BD7B
:1056700010B5A8B00446142123A8FBF74EF88421E6
:1056800002A8FBF74AF82068B0F1A04F3DD14FF4D3
:10569000001002900024219402A800F0E7FB08B15A
:1056A000FCF7AEFE1A48016841F001010160006894
:1056B00000F0010001904FF4C0502390022024908C
:1056C0002594032026900A20279023A91148FEF74D
:1056D00021FA0F48001D016841F080010160006857
:1056E00000F0800001900A481430016841F48041C4
:1056F0000160006800F48040009000220F214320E8
:10570000FFF7E2FA4320FFF7D2FA28B010BD0000FD
:10571000303802400000024070B504460125E079AF
:1057200000280ED0022801D0FCF76AFED4F8DC0471
:10573000294606F041FDD4F8DC04BDE8704006F0CF
:10574000F3BC0025F2E7D0F8DC0406F01EBDD0F86B
:10575000DC0406F024BD10B5044694F89404012836
:105760000AD0012084F894046174206807F0D5FC05
:10577000002084F8940410BD022010BDD0F8DC2471
:1057800000F29C41104606F023BD10B5044694F883
:10579000940401280CD0012084F89404206807F0B8
:1057A000E5FB206807F00CF9002084F8940410BD94
:1057B000022010BD10B50446D4F8DC0406F04AFD02
:1057C0002068D0F8001E41F00101C0F8001EE07A08
:1057D000002804D00248016841F00601016010BDB4
:1057E00010ED00E0F8B51948016841F08051016002
:1057F000006800F080500090154C206840F4803024
:105800002060FEF793FA05464FF47A7606E0FEF73D
:105810008DFA401BB04201D90320F8BD6068C00377
:10582000F5D5206840F400302060FEF77FFA054689
:1058300006E0FEF77BFA401BB04201D90320F8BD19
:1058400060688003F5D50020F8BD000040380240B4
:10585000007000400248016841F4807101607047A7
:1058600000700040F8B504460025FEF75FFA0646D2
:1058700094F84100800740D5002084F8400020685B
:10588000016849070DD5016821F004010160E06B52
:10589000FDF760FD0546280003D0606C40F0040071
:1058A0006064206881684FF00107890623D501688C
:1058B00041F002010160A06C0122022133460090F8
:1058C000204604F097FB054628000BD121680220F2
:1058D000C8600022A06C202133460090204604F0CE
:1058E00089FB05464DB92068416921F0406141615D
:1058F00084F8417001E084F841702846F8BD2DE934
:10590000F84F04460E4615461F46FEF70FFA82462C
:1059100094F8400001280ED04FF0010884F8408030
:1059200094F841004FF00009012806D0022084F8C5
:105930004090BDE8F88F0220FBE7C4F84490422075
:1059400084F841000022202153462046009704F0AD
:1059500051FB0028EBD121682868886221686868BB
:1059600048622168A868C86220682969026822F430
:10597000400242F4800211430160E868B0624FF0D7
:1059800000623146204604F0D7F90122534608212F
:105990002046009704F02EFB0028C8D12268082179
:1059A000D16084F84180C2E72DE9F84F04460E46E5
:1059B0009046FEF7BBF9834694F8400001280ED0CC
:1059C000012784F8407094F841004FF00009012845
:1059D00007D0022584F840902846BDE8F88F0220C1
:1059E000FBE7C4F844904FF0020A84F841A000227B
:1059F00020215B462046CDF8008004F0FBFA0546E6
:105A0000002DE7D100223146204604F095F9706A56
:105A100010B184F84170DDE701225B460221204687
:105A2000CDF8008004F0E6FA0546002DD2D12068BA
:105A3000C0F80CA084F84170CCE710B50446002CE7
:105A40000DD02068016821F001010160204600F0BE
:105A5000A5F80020403460606070207010BD012007
:105A600010BD0000F8B50446FEF760F9064624B103
:105A700094F84100002510B10BE00120F8BD84F836
:105A80004050204600F0AEF841F28831204600F048
:105A900083F92068016821F4F852A168491E42EA9E
:105AA00001210160A06C0022202133460090204695
:105AB00004F0A0FA10BBE268E16923790A43216A85
:105AC00041EA03610A4321680B680E4E33401A43D2
:105AD0000A60D4E905210A4321684B680A4E334025
